S01400005061706572696E6F5F332E312E73726563E1
S11300000C946D000C948A000C948A000C948A0061
S11300100C948A000C948A000C948A000C942B0A89
S11300200C948A000C94C30A0C948A000C948A00E1
S11300300C948A000C948A000C948A000C948A0014
S11300400C94980C0C948A000C948A000C948A00EA
S11300500C948E0C0C941D0C0C948A000C948A0045
S11300600C948A000C94160D0C948A000C948A004B
S11300700C948A000C948A000C948A000C94C50C8D
S11300800C948A000C948A000C948A000C94BB0C87
S11300900C948A000C948A000C948A000C948A00B4
S11300A00C948A000C948A000C948A00084AD73B6A
S11300B03BCE016E84BCBFFDC12F3D6C74319ABD33
S11300C056833DDA3D00C77F11BED9E4BB4C3E9157
S11300D06BAAAABE000000803F0011241FBECFEF10
S11300E0DAE0DEBFCDBF11E0A0E0B1E0E0E9F0E28C
S11300F002C005900D92AA32B107D9F721E0AAE215
S1130100B1E001C01D92AF38B207E1F70E949B092C
S11301100C9446100C9400008B3609F4DFC040F5B3
S1130120853609F491C090F4823609F45AC038F443
S1130130882309F41DC1813609F442C01DC18336E8
S113014009F460C0843609F46EC016C1883609F417
S1130150A3C038F4863609F488C0873609F496C0FB
S11301600BC1893609F49EC08A3609F4A9C004C1BA
S1130170813709F4E5C090F48E3609F4D0C038F420
S11301808C3609F4B9C08D3609F4C4C0F5C08F3675
S113019009F4CAC0803709F4CEC0EEC0843709F42C
S11301A0DEC038F4823709F4D0C0833709F4D2C0F2
S11301B0E3C0853709F4E3C08F3F09F4D5C0DCC040
S11301C080E00E94F2056091830170918401809126
S11301D08501909186010E945D0E862F0E94F90C84
S11301E0089580E00E94F2056091670170916801B2
S11301F08091690190916A010E945D0E862F0E9490
S1130200F90C089580E00E94F20560917B017091E1
S11302107C0180917D0190917E010E945D0E862F6C
S11302200E94F90C089580E00E948C0660917F0181
S11302307091800180918101909182010E945D0EF4
S1130240862F0E94F90C089580E00E948C0660912C
S11302508701709188018091890190918A010E949F
S11302605D0E862F0E94F90C089580E00E948C0692
S113027060915D0170915E0180915F0190916001D8
S11302800E945D0E862F0E94F90C089580E00E9462
S1130290CC050E94F90C089580E00E94BA050E94E2
S11302A0F90C089560916B0170916C0180916D015E
S11302B090916E010E945D0E862F0E94F90C0895A4
S11302C0609170017091710180917201909173013C
S11302D00E945D0E862F0E94F90C089560913C01E6
S11302E070913D0180913E0190913F010E945D0E0D
S11302F0862F0E94F90C089560913801709139019C
S113030080913A0190913B010E945D0E862F0E94DC
S1130310F90C089580916F010E94F90C0895809161
S11303207A010E94F90C089580918D0190918E01BB
S11303300E94F90C0895809154010E94F90C0895CB
S1130340809153010E94F90C0895809152010E94FA
S1130350F90C0895809151010E94F90C089580913F
S113036050010E94F90C089580E70E94F90C089549
S113037081E70E94F90C089585E60E94F90C08951E
S11303808CE08093B8001092B9000895CF93DF9366
S113039084EA8093BC00ECEBF0E080818823ECF7E6
S11303A08091B900887F8830E1F08091B900887F1E
S11303B08031C9F068E087E191E00E94010D67E0B7
S11303C080E191E00E94010DC9EBD0E08881887F33
S11303D00E94F90C809100010E94F90C8881887FA9
S11303E003C080E001C080E0DF91CF910895CF93F6
S11303F0DF93806D8093BB0084E88093BC00ECEBBA
S1130400F0E080818823ECF78091B900887F803404
S1130410E1F08091B900887F8831C9F068E087E114
S113042091E00E94010D66E08AE091E00E94010DD6
S1130430C9EBD0E08881887F0E94F90C809100018B
S11304400E94F90C8881887F03C080E001C080E0AD
S1130450DF91CF910895CF93DF938093BB0084E81D
S11304608093BC00ECEBF0E080818823ECF7809172
S1130470B900887F8832B9F068E087E191E00E9492
S1130480010D66E08AE091E00E94010DC9EBD0E025
S11304908881887F0E94F90C809100010E94F90CE8
S11304A08881887F01C080E0DF91CF910895CF9348
S11304B0DF9384EC8093BC00ECEBF0E08081882334
S11304C0ECF78091B900887F803519F48091BB00E6
S11304D016C068E087E191E00E94010D69E081E0C7
S11304E091E00E94010DC9EBD0E08881887F0E94D1
S11304F0F90C809100010E94F90C8881887FDF91BA
S1130500CF910895CF93DF9384E88093BC00ECEB04
S1130510F0E080818823ECF78091B900887F8835EA
S113052019F48091BB0016C068E087E191E00E9455
S1130530010D69E081E091E00E94010DC9EBD0E07A
S11305408881887F0E94F90C809100010E94F90C37
S11305508881887FDF91CF91089584E98093BC00DE
S11305600895CF93DF93C82FD62F0E94C60180E051
S11305700E94F701882321F08091B900887F15C07B
S11305808C2F0E942B02882321F08091B900887F50
S11305900CC08D2F0E942B02882321F08091B9007A
S11305A0887F03C094E99093BC00DF91CF910895B4
S11305B0CF93C82F0E94C601882321F08091B900EF
S11305C0887F28C080E00E94F701882321F0809171
S11305D0B900887F1FC08C2F0E942B02882321F032
S11305E08091B900887F16C00E94C601882321F03B
S11305F08091B900887F0EC081E00E94F7018823B2
S113060021F08091B900887F05C00E94820294E99C
S11306109093BC00CF910895CF93C82F0E94C60138
S1130620882329F08091B900887F90E02FC080E072
S11306300E94F701882329F08091B900887F90E017
S113064025C08C2F0E942B02882329F08091B900A9
S1130650887F90E01BC00E94C601882329F0809106
S1130660B900887F90E012C081E00E94F7018823DE
S113067029F08091B900887F90E008C00E94570259
S11306800E94820294E99093BC0090E0CF91089577
S11306908230C1F018F4813031F044C0833011F15C
S11306A0843081F13FC080E090E0A3E0B3E4809324
S11306B0250190932601A0932701B093280110925D
S11306C0410140C080E090E0A3E8B2E480932501BA
S11306D090932601A0932701B093280188E080938A
S11306E0410130C083E393E3A3E0B2E480932501A6
S11306F090932601A0932701B093280180E1809371
S1130700410120C083E393E3A3E8B1E4809325018E
S113071090932601A0932701B093280188E1809348
S1130720410110C06091250170912601809127013B
S1130730909128010E945D0E862F0E94F90C8AE098
S11307400E94F90C60912501709126018091270186
S1130750909128010E945D0E862F0895823091F0B9
S113076018F4813031F02CC08330B1F08430F1F0D2
S113077027C080E090E49093240180932301109299
S1130780400125C080E090E29093240180932301EE
S113079088E0809340011BC080E090E190932401A5
S11307A08093230180E18093400111C080E098E0B0
S11307B0909324018093230188E18093400107C032
S11307C0809123010E94F90C8AE00E94F90C809127
S11307D023010895CF93C82F0E94C601811195C0AB
S11307E00E94F701811193C08BE30E942B028111B7
S11307F090C00E94C60181118EC081E00E94F70161
S113080081118BC00E94570290E0982F8827909303
S11308107901809378010E945702209178013091E8
S11308207901282B30937901209378010E94570293
S113083090E0982F882790936601809365010E9429
S113084057022091650130916601282B309366018F
S1130850209365010E94570290E0982F8827909377
S11308607701809376010E94820220917601309173
S11308707701282B30937701209376010E94AD02F3
S1130880C13009F04CC08091780190917901209198
S11308902E0130912F01821B930B90937901809349
S11308A07801809165019091660120912C0130912D
S11308B02D01821B930B9093660180936501209117
S11308C076013091770180912A0190912B01821752
S11308D093076CF420917601309177013052820FA6
S11308E0931F909377018093760180E019C0209143
S11308F0760130917701305EA901481B590B509362
S113090077014093760180E00BC08FEF09C08FEF31
S113091007C08FEF05C08FEF03C08FEF01C080E0E9
S1130920CF910895CF93C82F0E94C60181117EC034
S11309300E94F70181117CC083E40E942B02811183
S113094079C00E94C601811177C081E00E94F7013D
S1130950811174C00E94570290E0982F88279093C9
S11309607501809374010E945702209174013091A3
S11309707501282B30937501209374010E9457024E
S113098090E0982F882790936401809363010E94DC
S113099057022091630130916401282B3093640144
S11309A0209363010E94570290E0982F8827909328
S11309B06201809361010E94820220916101309161
S11309C06201282B3093620120936101C13051F5FB
S11309D08091740190917501209134013091350119
S11309E0821B930B90937501809374018091630132
S11309F0909164012091320130913301821B930B59
S1130A0090936401809363018091610190916201EC
S1130A102091300130913101821B930B909362013C
S1130A20809361010E94AD0280E009C08FEF07C08E
S1130A308FEF05C08FEF03C08FEF01C08FEFCF9111
S1130A40089582E00E94480382E00E94AE0362E0BF
S1130A508AE10E94B102811179C0609141018BE168
S1130A600E94B102811174C0609140018CE10E9426
S1130A70B10281116FC060E083E20E94B102811172
S1130A806BC060E084E20E94B102811167C060E043
S1130A9087E30E94B102811163C060E088E30E9491
S1130AA0B10281115FC060E08AE60E94B102811147
S1130AB05BC061E08BE60E94B102811157C085E7FB
S1130AC00E94D802883609F053C02FEF83EC99E0D6
S1130AD0215080409040E1F700C0000080E00E9477
S1130AE0EA03809178019091790190932F0180938A
S1130AF02E01809165019091660190932D01809360
S1130B002C01809176019091770190932B01809331
S1130B102A0180E00E9492048091740190917501F1
S1130B209093350180933401809163019091640125
S1130B30909333018093320180916101909162011D
S1130B40909331018093300188E608958FEF0895E2
S1130B508FEF08958FEF08958FEF08958FEF089525
S1130B608FEF08958FEF08958FEF08958FEF089515
S1130B708EEF0895CF93DF93D82F85E70E94D80294
S1130B80C82FD13029F40E94F90C8AE00E94F90C94
S1130B908C2FDF91CF910895CF93DF93D82F8BE3E0
S1130BA00E940C03BC0180E090E00E948C0E20E0C7
S1130BB030E04AEA53E40E94E40D28EB3EE142E1CE
S1130BC052E40E94490D0E94560EC62FD13031F4D2
S1130BD0862F0E94F90C8AE00E94F90C8C2FDF9179
S1130BE0CF910895CF92DF92EF92FF920F931F93CC
S1130BF0CF93C82F0091780110917901609123015E
S1130C007091240180E090E00E948C0E6B017C01C5
S1130C10B801110F880B990B0E948E0EA701960143
S1130C200E94E40D23E333E344EC52E40E94490FB1
S1130C30609383017093840180938501909386016E
S1130C406091650170916601072E000C880B990B69
S1130C500E948E0EA70196010E94E40D23E333E364
S1130C6044EC52E40E94490F609367017093680159
S1130C708093690190936A01609176017091770184
S1130C80072E000C880B990B0E948E0EA70196016B
S1130C900E94E40D23E333E344EC52E40E94490F41
S1130CA060937B0170937C0180937D0190937E011E
S1130CB0C13051F560918301709184018091850167
S1130CC0909186010E945D0E862F0E94F90C60911E
S1130CD06701709168018091690190916A010E9495
S1130CE05D0E862F0E94F90C60917B0170917C014E
S1130CF080917D0190917E010E945D0E862F0E945D
S1130D00F90C8AE00E94F90CCF911F910F91FF908A
S1130D10EF90DF90CF900895CF92DF92EF92FF9201
S1130D20CF93C82F6091740170917501C090250113
S1130D30D0902601E0902701F0902801072E000CA6
S1130D40880B990B0E948E0EA70196010E94E40D58
S1130D5060937F017093800180938101909382015D
S1130D606091630170916401072E000C880B990B4C
S1130D700E948E0EA70196010E94E40D60938701E4
S1130D80709388018093890190938A016091610135
S1130D9070916201072E000C880B990B0E948E0E35
S1130DA0A70196010E94E40D60935D0170935E01BA
S1130DB080935F0190936001C13051F560917F0190
S1130DC07091800180918101909182010E945D0E59
S1130DD0862F0E94F90C609187017091880180919F
S1130DE0890190918A010E945D0E862F0E94F90C60
S1130DF060915D0170915E0180915F01909160014D
S1130E000E945D0E862F0E94F90C8AE00E94F90C64
S1130E10CF91FF90EF90DF90CF9008954F925F9223
S1130E206F927F928F929F92AF92BF92CF92DF92F6
S1130E30EF92FF92CF93DF93CDB7DEB72D970FB626
S1130E40F894DEBF0FBECDBF8D8780918301909152
S1130E508401A0918501B09186018D839E83AF8327
S1130E60B887C0906701D0906801E0906901F09064
S1130E706A018090670190906801A0906901B09028
S1130E806A0140907B0150907C0160907D017090DC
S1130E907E0180917B0190917C01A0917D01B091B4
S1130EA07E0189839A83AB83BC83A5019401C70126
S1130EB0B6010E94490F69877A878B879C87A501B1
S1130EC09401C701B6010E94490F6B017C0129817D
S1130ED03A814B815C81C301B2010E94490F9B019D
S1130EE0AC01C701B6010E94490D0E94BC0F9B01D1
S1130EF0AC016D817E818F8198850E94E40D0E94F2
S1130F00B50D20E030E044E353E40E94490F26E5A8
S1130F103EE049E450E40E94E40D0E94560E062E81
S1130F20000C770B880B990B0E948E0E60936B015B
S1130F3070936C0180936D0190936E0180916701B1
S1130F4090916801A0916901B0916A018D839E839B
S1130F50AF83B887C0908301D0908401E09085016D
S1130F60F09086018090830190908401A090850187
S1130F70B090860140907B0150907C0160907D018F
S1130F8070907E0180917B0190917C01A0917D0104
S1130F90B0917E0189839A83AB83BC83A5019401BC
S1130FA0C701B6010E94490F69877A878B879C879E
S1130FB0A5019401C701B6010E94490F6B017C0190
S1130FC029813A814B815C81C301B2010E94490F9E
S1130FD09B01AC01C701B6010E94490D0E94BC0FE0
S1130FE09B01AC016D817E818F8198850E94E40D07
S1130FF00E94B50D20E030E044E353E40E94490F21
S113100026E53EE049E450E40E94E40D0E94560EB9
S1131010062E000C770B880B990B0E948E0E6093A2
S113102070017093710180937201909373019D8597
S11310309130E9F460916B0170916C0180916D01C4
S113104090916E010E945D0E862F0E94F90C6091B2
S113105070017091710180917201909173010E94ED
S11310605D0E862F0E94F90C8AE00E94F90C2D96E1
S11310700FB6F894DEBF0FBECDBFDF91CF91FF90C6
S1131080EF90DF90CF90BF90AF909F908F907F9024
S11310906F905F904F9008958F929F92AF92BF92FE
S11310A0CF92DF92EF92FF92CF93C82F60915901B4
S11310B070915A0180915B0190915C010E945F0CD8
S11310C07093370160933601609136017091370156
S11310D0C0907F01D0908001E0908101F090820166
S11310E080903C0190903D01A0903E01B0903F0162
S11310F080E090E00E948C0EA70196010E94490FA7
S113110020E03AE243E758E40E94E40DA50194018B
S11311100E94490D60933C0170933D0180933E0110
S113112090933F016091360170913701C09087011F
S1131130D0908801E0908901F0908A018090380174
S113114090903901A0903A01B0903B0180E090E08A
S11311500E948C0EA70196010E94490F20E03AE2FA
S113116043E758E40E94E40DA50194010E94490D4F
S1131170609338017093390180933A0190933B0155
S113118026B58091570190915801820F911D90933B
S11311905C0180935B01809155019091560190937D
S11311A05A0180935901C13001F580913801909121
S11311B03901A0913A01B0913B01BC01CD01905895
S11311C00E945D0E862F0E94F90C60913C01709183
S11311D03D0180913E0190913F010E945D0E862F5A
S11311E00E94F90C8AE00E94F90CCF91FF90EF90D5
S11311F0DF90CF90BF90AF909F908F9008954F92C3
S11312005F926F927F928F929F92AF92BF92CF9292
S1131210DF92EF92FF92CF93DF9300D000D01F9222
S1131220CDB7DEB78D83C0901F01D0902001E09030
S11312302101F090220140906B0150906C0160906C
S11312406D0170906E01A701960160E070E080E886
S11312509FE30E94480D69837A838B839C838090EB
S1131260380190903901A0903A01B0903B01A3015C
S11312709201C701B6010E94490F2B013C01A5014F
S1131280940169817A818B819C810E94490F9B0121
S1131290AC01C301B2010E94480D0E94560E609336
S11312A06F01209170013091710140917201509150
S11312B0730140903C0150903D0160903E0170905C
S11312C03F01C701B6010E94490F6B017C01A301D4
S11312D0920169817A818B819C810E94490F9B01D3
S11312E0AC01C701B6010E94490D0E94560E6093DD
S11312F07A018D81813059F480916F010E94F90C3B
S113130080917A010E94F90C8AE00E94F90C0F90F6
S11313100F900F900F900F90DF91CF91FF90EF906F
S1131320DF90CF90BF90AF909F908F907F906F9001
S11313305F904F9008951AB88FE08BB98FEF84B9FE
S11313400E94AF0C0E94C00180E091EE0E94CF0C7D
S11313500E9421050E94F90C0E94D80B789411E098
S1131360C2E3D12F00E8C0935001809150018A312B
S11313701CF0D093450102C01092450180914501B3
S1131380813089F7812F0E94EA03812F0E94920401
S113139080E00E94F20580E00E948C066091480182
S11313A07091490180914A0190914B010E948C0EE9
S11313B020E030E040E251E40E94E40D0E945D0E22
S11313C0862F0E94F90C80E00E940E0780E00E94A4
S11313D04C08809154010E94F90C812F0E94FF084F
S11313E088B1803811F418B8BECF88B18111BBCF51
S11313F008B9B9CF8FB7F894E69AEE9A8FBF0895DB
S1131400CF93CFB7F8948CB38CBBEAE6F0E080813D
S1131410806380830E94FA09CFBFCF910895CF9350
S1131420CFB7F894E69AEAE6F0E080818F7E808375
S11314300E94FA09CFBFCF91089591E0909368007C
S113144080936B009BBB089585360CF084E688235B
S11314500CF480E008951F920F920FB60F9211249E
S1131460CF92DF92EF92FF922F933F934F935F932C
S11314706F937F938F939F93AF93BF93CF93DF9398
S1131480EF93FF9380914301811131C060914C012E
S113149070914D0180914E0190914F010E945F0C1B
S11314A0609348017093490180934A0190934B01E2
S11314B082EF91E0909347018093460126B5809195
S11314C0570190915801820F911D90934F01809381
S11314D04E01809155019091560190934D01809356
S11314E04C0181E0809343010E940F0A35C0609152
S11314F04C0170914D0180914E0190914F010E94D9
S11315005F0CC0914601D0914701695F710981095F
S113151091090E948C0E6B017C01BE0180E090E079
S11315200E948C0E9B01AC01C701B6010E94E40D20
S113153020E030E048E453E40E94490F0E94560E34
S113154060935401809154010E94240A80935401B1
S1131550109243010E94000AFF91EF91DF91CF9115
S1131560BF91AF919F918F917F916F915F914F91B7
S11315703F912F91FF90EF90DF90CF900F900FBE8F
S11315800F901F9018951F920F920FB60F9211246F
S1131590CF92DF92EF92FF922F933F934F935F93FB
S11315A06F937F938F939F93AF93BF93CF93DF9367
S11315B0EF93FF9393B18091440190934401892761
S11315C0843009F440C018F4823041F0DAC0883025
S11315D009F46EC0803109F4A0C0D3C060914C01FD
S11315E070914D0180914E0190914F010E945F0CCA
S11315F0C0914601D0914701695F71098109910940
S11316000E948C0E6B017C01BE0180E090E00E9480
S11316108C0E9B01AC01C701B6010E94E40D20E0D1
S113162030E048E453E40E94490F0E94560E609350
S113163051018AE00E94F90C809151010E94240A10
S1131640809351019EC060914C0170914D01809135
S11316504E0190914F010E945F0CC0914601D091C0
S11316604701695F7109810991090E948C0E6B0120
S11316707C01BE0180E090E00E948C0E9B01AC01D5
S1131680C701B6010E94E40D20E030E048E453E4D1
S11316900E94490F0E94560E609352018AE00E94F4
S11316A0F90C809152010E94240A8093520169C06E
S11316B060914C0170914D0180914E0190914F01C8
S11316C00E945F0CC0914601D0914701695F710986
S11316D0810991090E948C0E6B017C01BE0180E09E
S11316E090E00E948C0E9B01AC01C701B6010E94E0
S11316F0E40D20E030E048E453E40E94490F0E94E6
S1131700560E609353018AE00E94F90C80915301B4
S11317100E94240A8093530134C060914C0170915B
S11317204D0180914E0190914F010E945F0CC09138
S11317304601D0914701695F7109810991090E94AD
S11317408C0E6B017C01BE0180E090E00E948C0E47
S11317509B01AC01C701B6010E94E40D20E030E01A
S113176048E453E40E94490F0E94560E60935001CE
S11317708AE00E94F90C809150010E94240A80930F
S11317805001FF91EF91DF91CF91BF91AF919F9164
S11317908F917F916F915F914F913F912F91FF9026
S11317A0EF90DF90CF900F900FBE0F901F90189581
S11317B00E94000A8FEF0E941D0A0895803491054B
S11317C0D1F030F4009769F08830910581F01FC0A2
S11317D0811521E0920799F0811524E0920799F090
S11317E016C085B5816085BD81E090E0089525B57A
S11317F0226025BD089525B5236025BD089525B52E
S1131800246025BD089525B5266025BD089585B5B8
S1131810816085BD81E090E00895CF93C82FCB010E
S113182022E024BD0E94DE0BC7BDCF910895EEE6F1
S1131830F0E080818260808308951F920F920FB63A
S11318400F9211242F938F939F9380918D019091E8
S11318508E01019690938E0180938D0180915701A2
S11318609091580187509F4F90935801809357014E
S1131870809157019091580186309F4F48F0809194
S1131880550190915601019690935601809355010C
S113189080918D0190918E01019649F480918B0184
S11318A090918C01019690938C0180938B019F9170
S11318B08F912F910F900FBE0F901F901895CF937B
S11318C0DF93EC012091550130915601E6B540912A
S11318D0570150915801261B370BAFEFBFEF0E9401
S11318E03710DC01CB018C1B9D0BA109B1094E0FF4
S11318F0511DBC01CD01640F751F811D911DDF9128
S1131900CF91089584B1806E84B9E0E8F0E08081DD
S1131910886A808380E18093810008951F920F92EA
S11319200FB60F9211240F900FBE0F901F901895B1
S11319301F920F920FB60F9211240F900FBE0F90AB
S11319401F90189580E487B9E0E9F0E08081806811
S11319508083E1E9F0E080818061808308950E94C2
S1131960820C0E94A20C60E470E089EF0E940D0CCE
S11319700E94170C08951F920F920FB60F92112414
S11319800F900FBE0F901F9018951F920F920FB6D5
S11319900F9211240F900FBE0F901F901895A0E086
S11319A0B0E0880F991FAA1FBB1F880F991FAA1F99
S11319B0BB1F9C01AD01220F331F441F551F220F73
S11319C0331F441F551F60E074E284EF90E00E94CF
S11319D0151021501092CD002093CC00E9ECF0E0DA
S11319E080E8808386E08093CA0080818861808358
S11319F00895E8ECF0E0908195FFFDCF8093CE0050
S1131A0008950F931F93CF93DF93662351F08C01B6
S1131A10EC01060F111D89910E94F90CC017D10722
S1131A20D1F7DF91CF911F910F9108951F920F92DB
S1131A300FB60F9211242F933F934F935F936F939D
S1131A407F938F939F93AF93BF93EF93FF93809173
S1131A50CE0080934201809142010E94F90C809152
S1131A60420190E00E948C008AE00E94F90CFF91F0
S1131A70EF91BF91AF919F918F917F916F915F9102
S1131A804F913F912F910F900FBE0F901F9018957B
S1131A905058BB27AA270E94600D0C94070F0E9480
S1131AA0F90E38F00E94000F20F039F49F3F19F42A
S1131AB026F40C94CF0E0EF4E095E7FB0C94C90EBB
S1131AC0E92F0E94180F58F3BA17620773078407A7
S1131AD0950720F079F4A6F50C943A0F0EF4E095EE
S1131AE00B2EBA2FA02D0B01B90190010C01CA01D4
S1131AF0A0011124FF27591B99F0593F50F4503E7F
S1131B0068F11A16F040A22F232F342F4427585F70
S1131B10F3CF469537952795A795F0405395C9F788
S1131B207EF41F16BA0B620B730B840BBAF0915040
S1131B30A1F0FF0FBB1F661F771F881FC2F70EC0DF
S1131B40BA0F621F731F841F48F4879577956795B2
S1131B50B795F7959E3F08F0B0CF9395880F08F09E
S1131B609927EE0F979587950895DF93DD27B92F71
S1131B70BF7740E85FE31616170648075B0718F4BB
S1131B80D92F0E94410F9F938F937F936F930E944D
S1131B90FC0FECEAF0E00E94D20E0E94070F2F9196
S1131BA03F914F915F910E945C0FDD2351F090585B
S1131BB0A2EA2AED3FE049EC5FE3D0785D270E947A
S1131BC0600DDF910C94070F0E94F80D0C94070F21
S1131BD00E94000F58F00E94F90E40F029F45F3F74
S1131BE029F00C94C90E51110C943B0F0C94CF0E98
S1131BF00E94180F68F39923B1F3552391F3951BB1
S1131C00550BBB27AA2762177307840738F09F5F19
S1131C105F4F220F331F441FAA1FA9F335D00E2E86
S1131C203AF0E0E832D091505040E695001CCAF7F3
S1131C302BD0FE2F29D0660F771F881FBB1F2617B6
S1131C4037074807AB07B0E809F0BB0B802DBF018D
S1131C50FF2793585F4F3AF09E3F510578F00C945C
S1131C60C90E0C943B0F5F3FE4F3983ED4F3869582
S1131C7077956795B795F7959F5FC9F7880F911D7D
S1131C809695879597F90895E1E0660F771F881F69
S1131C90BB1F621773078407BA0720F0621B730B1C
S1131CA0840BBA0BEE1F88F7E09508950E945D0E31
S1131CB06894B1110C943B0F08950E94200F88F092
S1131CC09F5798F0B92F9927B751B0F0E1F0660FFC
S1131CD0771F881F991F1AF0BA95C9F714C0B1303D
S1131CE091F00E943A0FB1E008950C943A0F672FD7
S1131CF0782F8827B85F39F0B93FCCF3869577956C
S1131D006795B395D9F73EF4909580957095619554
S1131D107F4F8F4F9F4F0895E89409C097FB3EF47F
S1131D2090958095709561957F4F8F4F9F4F992324
S1131D30A9F0F92F96E9BB279395F69587957795A2
S1131D406795B795F111F8CFFAF4BB0F11F460FF62
S1131D501BC06F5F7F4F8F4F9F4F16C0882311F0BA
S1131D6096E911C0772321F09EE8872F762F05C0CE
S1131D70662371F096E8862F70E060E02AF09A9569
S1131D80660F771F881FDAF7880F9695879597F95E
S1131D90089597F99F6780E870E060E008959FEFE9
S1131DA080EC0895DF93CF931F930F93FF92EF92EC
S1131DB0DF927B018C01689406C0DA2EEF010E9449
S1131DC05C0FFE01E894A5912591359145915591BB
S1131DD0A6F3EF010E94600DFE019701A801DA94B9
S1131DE069F7DF90EF90FF900F911F91CF91DF91F2
S1131DF0089500240A94161617061806090608956D
S1131E0000240A9412161306140605060895092ED2
S1131E100394000C11F4882352F0BB0F40F4BF2B41
S1131E2011F460FF04C06F5F7F4F8F4F9F4F089581
S1131E3057FD9058440F551F59F05F3F71F0479577
S1131E40880F97FB991F61F09F3F79F0879508955C
S1131E50121613061406551FF2CF4695F1DF08C07B
S1131E60161617061806991FF1CF86957105610598
S1131E7008940895E894BB2766277727CB0197F940
S1131E8008959B01AC0160E070E080E89FE30C944E
S1131E90E40D0E945C0F0C94070F0E94F90E38F0B9
S1131EA00E94000F20F0952311F00C94C90E0C949D
S1131EB0CF0E11240C943B0F0E94180F70F3959FC2
S1131EC0C1F3950F50E0551F629FF001729FBB272D
S1131ED0F00DB11D639FAA27F00DB11DAA1F649FC9
S1131EE06627B00DA11D661F829F2227B00DA11D7C
S1131EF0621F739FB00DA11D621F839FA00D611D02
S1131F00221F749F3327A00D611D231F849F600D22
S1131F10211D822F762F6A2F11249F5750409AF04B
S1131F20F1F088234AF0EE0FFF1FBB1F661F771FD7
S1131F30881F91505040A9F79E3F510580F00C94A2
S1131F40C90E0C943B0F5F3FE4F3983ED4F386959F
S1131F5077956795B795F795E7959F5FC1F7FE2B42
S1131F60880F911D9695879597F9089519F416F49D
S1131F700C94CF0E0C9400100E94200FB8F39923F8
S1131F80C9F3B6F39F57550B87FF0E940E10002428
S1131F90A0E640EA900180585695979528F4805C15
S1131FA0660F771F881F20F026173707480730F47D
S1131FB0621B730B840B202931294A2BA695179495
S1131FC00794202531254A2758F7660F771F881F65
S1131FD020F026173707480730F4620B730B840B85
S1131FE0200D311D411DA09581F7B901842F915811
S1131FF0880F9695879508959B01AC010C94490F21
S11320009F3F31F0915020F4879577956795B79568
S1132010880F911D9695879597F908959150504092
S1132020660F771F881FD2F70895A1E21A2EAA1B04
S1132030BB1BFD010DC0AA1FBB1FEE1FFF1FA21774
S1132040B307E407F50720F0A21BB30BE40BF50B71
S1132050661F771F881F991F1A9469F760957095FA
S1132060809590959B01AC01BD01CF010895A29F7D
S1132070B001B39FC001A39F700D811D1124911D58
S1132080B29F700D811D1124911D0895F894FFCF06
S11320900A726563656976653A2073656E643A20F1
S11320A073746172743A204572726F72203A20CD53
S10D20B0CCCC3D00400000034300C7
S9030110EB
