:100000000C946D000C948A000C948A000C948A0065
:100010000C948A000C948A000C948A000C94260A92
:100020000C948A000C94C30A0C948A000C948A00E5
:100030000C948A000C948A000C948A000C948A0018
:100040000C947D0C0C948A000C948A000C948A0009
:100050000C94730C0C94020C0C948A000C948A007F
:100060000C948A000C94FB0C0C948A000C948A006B
:100070000C948A000C948A000C948A000C94AA0CAC
:100080000C948A000C948A000C948A000C94A00CA6
:100090000C948A000C948A000C948A000C948A00B8
:1000A0000C948A000C948A000C948A00084AD73B6E
:1000B0003BCE016E84BCBFFDC12F3D6C74319ABD37
:1000C00056833DDA3D00C77F11BED9E4BB4C3E915B
:1000D0006BAAAABE000000803F0011241FBECFEF14
:1000E000DAE0DEBFCDBF11E0A0E0B1E0ECEAF0E283
:1000F00002C005900D92AA32B107D9F721E0AAE219
:10010000B1E001C01D92AB38B207E1F70E94BD0912
:100110000C9454100C9400008B3609F4DFC040F5A9
:10012000853609F491C090F4823609F45AC038F447
:10013000882309F41DC1813609F442C01DC18336EC
:1001400009F460C0843609F46EC016C1883609F41B
:10015000A3C038F4863609F488C0873609F496C0FF
:100160000BC1893609F49EC08A3609F4A9C004C1BE
:10017000813709F4E5C090F48E3609F4D0C038F424
:100180008C3609F4B9C08D3609F4C4C0F5C08F3679
:1001900009F4CAC0803709F4CEC0EEC0843709F430
:1001A000DEC038F4823709F4D0C0833709F4D2C0F6
:1001B000E3C0853709F4E3C08F3F09F4D5C0DCC044
:1001C00080E00E94F20560917F0170918001809132
:1001D0008101909182010E94420E862F0E94DE0CC6
:1001E000089580E00E94F2056091630170916401BE
:1001F00080916501909166010E94420E862F0E94B7
:10020000DE0C089580E00E94F20560917701709104
:1002100078018091790190917A010E94420E862F97
:100220000E94DE0C089580E00E948C0660917B01A4
:1002300070917C0180917D0190917E010E94420E1F
:10024000862F0E94DE0C089580E00E948C0660914B
:1002500083017091840180918501909186010E94B3
:10026000420E862F0E94DE0C089580E00E948C06CC
:100270006091590170915A0180915B0190915C01EC
:100280000E94420E862F0E94DE0C089580E00E949C
:10029000CC050E94DE0C089580E00E94BA050E9401
:1002A000DE0C089560916701709168018091690189
:1002B00090916A010E94420E862F0E94DE0C0895E2
:1002C00060916C0170916D0180916E0190916F0150
:1002D0000E94420E862F0E94DE0C089560913A0122
:1002E00070913B0180913C0190913D010E94420E32
:1002F000862F0E94DE0C08956091360170913701BF
:1003000080913801909139010E94420E862F0E94FF
:10031000DE0C089580916B010E94DE0C089580919F
:1003200076010E94DE0C08958091890190918A01E6
:100330000E94DE0C0895809150010E94DE0C089509
:1003400080914F010E94DE0C089580914E010E9421
:10035000DE0C089580914D010E94DE0C089580917D
:100360004C010E94DE0C089580E70E94DE0C089587
:1003700081E70E94DE0C089585E60E94DE0C089558
:100380008CE08093B8001092B9000895CF93DF936A
:1003900084EA8093BC00ECEBF0E080818823ECF7EA
:1003A0008091B900887F8830E1F08091B900887F22
:1003B0008031C9F068E087E191E00E94E60C67E0D7
:1003C00080E191E00E94E60CC9EBD0E08881887F53
:1003D0000E94DE0C809100010E94DE0C8881887FE3
:1003E00003C080E001C080E0DF91CF910895CF93FA
:1003F000DF93806D8093BB0084E88093BC00ECEBBE
:10040000F0E080818823ECF78091B900887F803408
:10041000E1F08091B900887F8831C9F068E087E118
:1004200091E00E94E60C66E08AE091E00E94E60C12
:10043000C9EBD0E08881887F0E94DE0C80910001AA
:100440000E94DE0C8881887F03C080E001C080E0CC
:10045000DF91CF910895CF93DF938093BB0084E821
:100460008093BC00ECEBF0E080818823ECF7809176
:10047000B900887F8832B9F068E087E191E00E9496
:10048000E60C66E08AE091E00E94E60CC9EBD0E061
:100490008881887F0E94DE0C809100010E94DE0C22
:1004A0008881887F01C080E0DF91CF910895CF934C
:1004B000DF9384EC8093BC00ECEBF0E08081882338
:1004C000ECF78091B900887F803519F48091BB00EA
:1004D00016C068E087E191E00E94E60C69E081E0E7
:1004E00091E00E94E60CC9EBD0E08881887F0E94F1
:1004F000DE0C809100010E94DE0C8881887FDF91F4
:10050000CF910895CF93DF9384E88093BC00ECEB08
:10051000F0E080818823ECF78091B900887F8835EE
:1005200019F48091BB0016C068E087E191E00E9459
:10053000E60C69E081E091E00E94E60CC9EBD0E0B6
:100540008881887F0E94DE0C809100010E94DE0C71
:100550008881887FDF91CF91089584E98093BC00E2
:100560000895CF93DF93C82FD62F0E94C60180E055
:100570000E94F701882321F08091B900887F15C07F
:100580008C2F0E942B02882321F08091B900887F54
:100590000CC08D2F0E942B02882321F08091B9007E
:1005A000887F03C094E99093BC00DF91CF910895B8
:1005B000CF93C82F0E94C601882321F08091B900F3
:1005C000887F28C080E00E94F701882321F0809175
:1005D000B900887F1FC08C2F0E942B02882321F036
:1005E0008091B900887F16C00E94C601882321F03F
:1005F0008091B900887F0EC081E00E94F7018823B6
:1006000021F08091B900887F05C00E94820294E9A0
:100610009093BC00CF910895CF93C82F0E94C6013C
:10062000882329F08091B900887F90E02FC080E076
:100630000E94F701882329F08091B900887F90E01B
:1006400025C08C2F0E942B02882329F08091B900AD
:10065000887F90E01BC00E94C601882329F080910A
:10066000B900887F90E012C081E00E94F7018823E2
:1006700029F08091B900887F90E008C00E9457025D
:100680000E94820294E99093BC0090E0CF9108957B
:100690008230C1F018F4813031F044C0833011F160
:1006A000843081F13FC080E090E0A3E0B3E4809328
:1006B000250190932601A0932701B0932801109261
:1006C0003F0140C080E090E0A3E8B2E480932501C0
:1006D00090932601A0932701B093280188E080938E
:1006E0003F0130C083E393E3A3E0B2E480932501AC
:1006F00090932601A0932701B093280180E1809375
:100700003F0120C083E393E3A3E8B1E48093250194
:1007100090932601A0932701B093280188E180934C
:100720003F0110C060912501709126018091270141
:10073000909128010E94420E862F0E94DE0C8AE0D2
:100740000E94DE0C609125017091260180912701A5
:10075000909128010E94420E862F0895823091F0D8
:1007600018F4813031F02CC08330B1F08430F1F0D6
:1007700027C080E090E4909324018093230110929D
:100780003E0125C080E090E29093240180932301F4
:1007900088E080933E011BC080E090E190932401AB
:1007A0008093230180E180933E0111C080E098E0B6
:1007B000909324018093230188E180933E0107C038
:1007C000809123010E94DE0C8AE00E94DE0C809161
:1007D00023010895CF93C82F0E94C601811195C0AF
:1007E0000E94F701811193C08BE30E942B028111BB
:1007F00090C00E94C60181118EC081E00E94F70165
:1008000081118BC00E94570290E0982F8827909307
:100810007501809374010E945702209174013091F8
:100820007501282B30937501209374010E945702A3
:1008300090E0982F882790936201809361010E9435
:1008400057022091610130916201282B309362019F
:10085000209361010E94570290E0982F882790937F
:100860007301809372010E94820220917201309183
:100870007301282B30937301209372010E94AD0203
:10088000C13009F04CC080917401909175012091A4
:100890002E0130912F01821B930B90937501809351
:1008A0007401809161019091620120912C0130913D
:1008B0002D01821B930B9093620180936101209123
:1008C00072013091730180912A0190912B0182175E
:1008D00093076CF420917201309173013052820FB2
:1008E000931F909373018093720180E019C020914F
:1008F000720130917301305EA901481B590B50936E
:1009000073014093720180E00BC08FEF09C08FEF3D
:1009100007C08FEF05C08FEF03C08FEF01C080E0ED
:10092000CF910895CF93C82F0E94C60181117EC038
:100930000E94F70181117CC083E40E942B02811187
:1009400079C00E94C601811177C081E00E94F70141
:10095000811174C00E94570290E0982F88279093CD
:100960007101809370010E945702209170013091B3
:100970007101282B30937101209370010E9457025E
:1009800090E0982F88279093600180935F010E94E8
:10099000570220915F0130916001282B3093600154
:1009A00020935F010E94570290E0982F8827909330
:1009B0005E0180935D010E94820220915D01309171
:1009C0005E01282B30935E0120935D01C13051F50B
:1009D0008091700190917101209134013091350125
:1009E000821B930B909371018093700180915F0142
:1009F000909160012091320130913301821B930B61
:100A00009093600180935F0180915D0190915E0100
:100A10002091300130913101821B930B90935E0144
:100A200080935D010E94AD0280E009C08FEF07C096
:100A30008FEF05C08FEF03C08FEF01C08FEFCF9115
:100A4000089582E00E94480382E00E94AE0362E0C3
:100A50008AE10E94B102811179C060913F018BE16E
:100A60000E94B102811174C060913E018CE10E942C
:100A7000B10281116FC060E083E20E94B102811176
:100A80006BC060E084E20E94B102811167C060E047
:100A900087E30E94B102811163C060E088E30E9495
:100AA000B10281115FC060E08AE60E94B10281114B
:100AB0005BC061E08BE60E94B102811157C085E7FF
:100AC0000E94D802883609F053C02FEF83EC99E0DA
:100AD000215080409040E1F700C0000080E00E947B
:100AE000EA03809174019091750190932F01809396
:100AF0002E01809161019091620190932D0180936C
:100B00002C01809172019091730190932B0180933D
:100B10002A0180E00E9492048091700190917101FD
:100B2000909335018093340180915F019091600131
:100B3000909333018093320180915D0190915E0129
:100B4000909331018093300188E608958FEF0895E6
:100B50008FEF08958FEF08958FEF08958FEF089529
:100B60008FEF08958FEF08958FEF08958FEF089519
:100B70008EEF0895CF93DF93D82F85E70E94D80298
:100B8000C82FD13029F40E94DE0C8AE00E94DE0CCE
:100B90008C2FDF91CF910895CF93DF93D82F8BE3E4
:100BA0000E940C03BC0180E090E00E94710E20E0E6
:100BB00030E04AEA53E40E94C90D28EB3EE142E1ED
:100BC00052E40E942E0D0E943B0EC62FD13031F40C
:100BD000862F0E94DE0C8AE00E94DE0C8C2FDF91B3
:100BE000CF910895CF92DF92EF92FF920F931F93D0
:100BF000CF93C82F0091740110917501609123016A
:100C00007091240180E090E00E94710E6B017C01E4
:100C1000B801110F880B990B0E94730EA701960162
:100C20000E94C90D23E333E344EC52E40E94330FE6
:100C300060937F0170938001809381019093820182
:100C40006091610170916201072E000C880B990B75
:100C50000E94730EA70196010E94C90D23E333E39E
:100C600044EC52E40E94330F60936301709364017B
:100C70008093650190936601609172017091730198
:100C8000072E000C880B990B0E94730EA70196018A
:100C90000E94C90D23E333E344EC52E40E94330F76
:100CA00060937701709378018093790190937A0132
:100CB000C13051F560917F01709180018091810177
:100CC000909182010E94420E862F0E94DE0C60915C
:100CD00063017091640180916501909166010E94A9
:100CE000420E862F0E94DE0C609177017091780190
:100CF0008091790190917A010E94420E862F0E9484
:100D0000DE0C8AE00E94DE0CCF911F910F91FF90C4
:100D1000EF90DF90CF900895CF92DF92EF92FF9205
:100D2000CF93C82F6091700170917101C09025011F
:100D3000D0902601E0902701F0902801072E000CAA
:100D4000880B990B0E94730EA70196010E94C90D92
:100D500060937B0170937C0180937D0190937E0171
:100D600060915F0170916001072E000C880B990B58
:100D70000E94730EA70196010E94C90D6093830122
:100D800070938401809385019093860160915D0149
:100D900070915E01072E000C880B990B0E94730E58
:100DA000A70196010E94C90D6093590170935A01E1
:100DB00080935B0190935C01C13051F560917B01A0
:100DC00070917C0180917D0190917E010E94420E84
:100DD000862F0E94DE0C60918301709184018091C6
:100DE0008501909186010E94420E862F0E94DE0CA2
:100DF0006091590170915A0180915B0190915C0161
:100E00000E94420E862F0E94DE0C8AE00E94DE0CB9
:100E1000CF91FF90EF90DF90CF9008954F925F9227
:100E20006F927F928F929F92AF92BF92CF92DF92FA
:100E3000EF92FF92CF93DF93CDB7DEB72D970FB62A
:100E4000F894DEBF0FBECDBF8D8780917F0190915A
:100E50008001A0918101B09182018D839E83AF8337
:100E6000B887C0906301D0906401E0906501F09074
:100E700066018090630190906401A0906501B0903C
:100E800066014090770150907801609079017090F0
:100E90007A018091770190917801A0917901B091C8
:100EA0007A0189839A83AB83BC83A5019401C7012E
:100EB000B6010E94330F69877A878B879C87A501CB
:100EC0009401C701B6010E94330F6B017C01298197
:100ED0003A814B815C81C301B2010E94330F9B01B7
:100EE000AC01C701B6010E942E0D0E94A60F9B0106
:100EF000AC016D817E818F8198850E94C90D0E9411
:100F00009A0D20E030E044E353E40E94330F26E5DD
:100F10003EE049E450E40E94C90D0E943B0E062EBB
:100F2000000C770B880B990B0E94730E609367017E
:100F3000709368018093690190936A0180916301C5
:100F400090916401A0916501B09166018D839E83AB
:100F5000AF83B887C0907F01D0908001E09081017D
:100F6000F090820180907F0190908001A09081019B
:100F7000B0908201409077015090780160907901A3
:100F800070907A018091770190917801A091790118
:100F9000B0917A0189839A83AB83BC83A5019401C4
:100FA000C701B6010E94330F69877A878B879C87B8
:100FB000A5019401C701B6010E94330F6B017C01AA
:100FC00029813A814B815C81C301B2010E94330FB8
:100FD0009B01AC01C701B6010E942E0D0E94A60F15
:100FE0009B01AC016D817E818F8198850E94C90D26
:100FF0000E949A0D20E030E044E353E40E94330F56
:1010000026E53EE049E450E40E94C90D0E943B0EF3
:10101000062E000C770B880B990B0E94730E6093C1
:101020006C0170936D0180936E0190936F019D85AB
:101030009130E9F4609167017091680180916901D4
:1010400090916A010E94420E862F0E94DE0C6091F0
:101050006C0170916D0180916E0190916F010E9401
:10106000420E862F0E94DE0C8AE00E94DE0C2D9636
:101070000FB6F894DEBF0FBECDBFDF91CF91FF90CA
:10108000EF90DF90CF90BF90AF909F908F907F9028
:101090006F905F904F9008954F925F926F927F9202
:1010A0008F929F92AF92BF92CF92DF92EF92FF9278
:1010B000CF93C82F609155017091560180915701CF
:1010C000909158010E94440C0E94710E6B017C01AA
:1010D00060917B0170917C0180917D0190917E01F6
:1010E00020E030E040E450E40E94260F18168CF017
:1010F00060918301709184018091850190918601B6
:1011000020E030E040E450E40E94260F18160CF076
:1011100048C020E03AE243E758E4C701B6010E9424
:10112000C90D4B015C0120917B0130917C01409104
:101130007D0150917E0140903A0150903B016090BA
:101140003C0170903D010E94330FA30192010E9467
:101150002E0D60933A0170933B0180933C01909374
:101160003D0120918301309184014091850150918E
:1011700086014090360150903701609038017090A0
:101180003901C501B4010E94330FA30192010E94ED
:101190002E0D609336017093370180933801909340
:1011A000390120E030E040E251E4C701B6010E947D
:1011B000C90D0E94420E862F0E94DE0C26B580913A
:1011C000530190915401820F911D90935801809387
:1011D0005701809151019091520190935601809353
:1011E0005501C13001F58091360190913701A091F0
:1011F0003801B0913901BC01CD0190580E94420ED6
:10120000862F0E94DE0C60913A0170913B01809123
:101210003C0190913D010E94420E862F0E94DE0CFF
:101220008AE00E94DE0CCF91FF90EF90DF90CF908C
:10123000BF90AF909F908F907F906F905F904F90F6
:1012400008954F925F926F927F928F929F92AF928A
:10125000BF92CF92DF92EF92FF92CF93DF9300D0B5
:1012600000D01F92CDB7DEB78D83C0901F01D09004
:101270002001E0902101F090220140906701509000
:1012800068016090690170906A01A701960160E0B1
:1012900070E080E89FE30E942D0D69837A838B8341
:1012A0009C838090360190903701A0903801B090D7
:1012B0003901A3019201C701B6010E94330F2B012E
:1012C0003C01A501940169817A818B819C810E94F6
:1012D000330F9B01AC01C301B2010E942D0D0E948E
:1012E0003B0E60936B0120916C0130916D01409138
:1012F0006E0150916F0140903A0150903B01609017
:101300003C0170903D01C701B6010E94330F6B0193
:101310007C01A301920169817A818B819C810E9469
:10132000330F9B01AC01C701B6010E942E0D0E9434
:101330003B0E609376018D81813059F480916B0171
:101340000E94DE0C809176010E94DE0C8AE00E94F1
:10135000DE0C0F900F900F900F900F90DF91CF91B8
:10136000FF90EF90DF90CF90BF90AF909F908F90C5
:101370007F906F905F904F9008951AB88FE08BB96F
:101380008FEF84B90E94940C0E94C00180E091EE1E
:101390000E94B40C0E9421050E94DE0C0E94C00B2A
:1013A000789411E0C2E3D12FC0934C0180914C019D
:1013B0008A3118F0D093430102C01092430180910A
:1013C0004301813089F7812F0E94EA03812F0E9417
:1013D000920480E00E94F20580E00E948C068091D9
:1013E000440190914501A0914601B09147010E94AE
:1013F000DE0C80E00E940E07812F0E944C0880E0E6
:101400000E942109D1CF8FB7F894E69AEE9A8FBF48
:101410000895CF93CFB7F8948CB38CBBEAE6F0E095
:101420008081806380830E94030ACFBFCF9108959B
:10143000CF93CFB7F894E69AEAE6F0E080818F7E0A
:1014400080830E94030ACFBFCF9108951F920F920D
:101450000FB60F9211248F929F92AF92BF92CF92AC
:10146000DF92EF92FF922F933F934F935F936F938F
:101470007F938F939F93AF93BF93EF93FF9380914D
:101480004101811135C060914801709149018091FD
:101490004A0190914B010E94440C60934401709367
:1014A0004501809346019093470126B580915301F1
:1014B00090915401820F911D90934B0180934A01AA
:1014C000809151019091520190934901809348017C
:1014D00081E08093410188B1803811F418B805C0CB
:1014E00088B1811102C080E888B90E94180A32C010
:1014F000609148017091490180914A0190914B019E
:101500000E94440CC0904401D0904501E0904601F7
:10151000F0904701695F7109810991090E94710E7C
:101520004B015C01C701B6010E94710E9B01AC0129
:10153000C501B4010E94C90D20E030E048EC52E43E
:101540000E94330F0E94420E60935001109241019D
:101550000E94090AFF91EF91BF91AF919F918F91E6
:101560007F916F915F914F913F912F91FF90EF90FD
:10157000DF90CF90BF90AF909F908F900F900FBE55
:101580000F901F9018951F920F920FB60F92112473
:101590008F929F92AF92BF92CF92DF92EF92FF9283
:1015A0002F933F934F935F936F937F938F939F936B
:1015B000AF93BF93EF93FF9393B1809142019093C8
:1015C00042012091410189278430C9F118F4823009
:1015D00041F0BDC0883009F460C0803109F48BC08F
:1015E000B6C080914101813009F0B1C060914801DD
:1015F0007091490180914A0190914B010E94440CE5
:10160000C0904401D0904501E0904601F090470120
:10161000695F7109810991090E94710E4B015C019A
:10162000C701B6010E94710E9B01AC01C501B40156
:101630000E94C90D0E94420E60934D0188C08091A6
:101640004101813009F083C06091480170914901E6
:1016500080914A0190914B010E94440CC09044013A
:10166000D0904501E0904601F0904701695F710913
:10167000810991090E94710E4B015C01C701B601FD
:101680000E94710E9B01AC01C501B4010E94C90DFD
:101690000E94420E60934E015AC0809141018130F8
:1016A00009F055C0609148017091490180914A014B
:1016B00090914B010E94440CC0904401D090450190
:1016C000E0904601F0904701695F71098109910935
:1016D0000E94710E4B015C01C701B6010E94710EA0
:1016E0009B01AC01C501B4010E94C90D0E94420ECC
:1016F00060934F012CC080914101813041F5609190
:1017000048017091490180914A0190914B010E94DA
:10171000440CC0904401D0904501E0904601F09007
:101720004701695F7109810991090E94710E4B019E
:101730005C01C701B6010E94710E9B01AC01C5019D
:10174000B4010E94C90D0E94420E60934C01FF91AA
:10175000EF91BF91AF919F918F917F916F915F9129
:101760004F913F912F91FF90EF90DF90CF90BF90DE
:10177000AF909F908F900F900FBE0F901F90189575
:101780000E94090A089580349105D1F030F4009741
:1017900069F08830910581F01FC0811521E0920722
:1017A00099F0811524E0920799F016C085B5816003
:1017B00085BD81E090E0089525B5226025BD08959E
:1017C00025B5236025BD089525B5246025BD089560
:1017D00025B5266025BD089585B5816085BD81E06C
:1017E00090E00895CF93C82FCB0122E024BD0E9442
:1017F000C30BC7BDCF910895EEE6F0E08081826013
:10180000808308951F920F920FB60F9211242F9389
:101810008F939F938091890190918A010196909373
:101820008A018093890180915301909154018750DE
:101830009F4F909354018093530180915301909155
:10184000540186309F4F48F0809151019091520190
:10185000019690935201809351018091890190915A
:101860008A01019649F4809187019091880101963F
:1018700090938801809387019F918F912F910F9072
:101880000FBE0F901F901895CF93DF93EC0120911E
:10189000510130915201E6B54091530150915401EC
:1018A000261B370BAFEFBFEF0E944510DC01CB01C9
:1018B0008C1B9D0BA109B1094E0F511DBC01CD011F
:1018C000640F751F811D911DDF91CF91089584B123
:1018D000806E84B9E0E8F0E08081886A808380E1EE
:1018E0008093810008951F920F920FB60F921124DA
:1018F0000F900FBE0F901F9018951F920F920FB66A
:101900000F9211240F900FBE0F901F90189580E436
:1019100087B9E0E9F0E0808180688083E1E9F0E068
:1019200080818061808308950E94670C0E94870CEB
:1019300060E470E089EF0E94F20B0E94FC0B0895B6
:101940001F920F920FB60F9211240F900FBE0F909F
:101950001F9018951F920F920FB60F9211240F909F
:101960000FBE0F901F901895A0E0B0E0880F991F50
:10197000AA1FBB1F880F991FAA1FBB1F9C01AD0187
:10198000220F331F441F551F220F331F441F551FA3
:1019900060E074E284EF90E00E94231021501092E6
:1019A000CD002093CC00E9ECF0E080E8808386E075
:1019B0008093CA008081886180830895E8ECF0E01C
:1019C000908195FFFDCF8093CE0008950F931F93D4
:1019D000CF93DF93662351F08C01EC01060F111DAC
:1019E00089910E94DE0CC017D107D1F7DF91CF910A
:1019F0001F910F9108951F920F920FB60F9211240D
:101A00002F933F934F935F936F937F938F939F9306
:101A1000AF93BF93EF93FF938091CE0080934001EB
:101A2000809140010E94DE0C8091400190E00E9474
:101A30008C008AE00E94DE0CFF91EF91BF91AF9184
:101A40009F918F917F916F915F914F913F912F91D6
:101A50000F900FBE0F901F9018955058BB27AA27C4
:101A60000E94450D0C94EC0E0E94DE0E38F00E9490
:101A7000E50E20F039F49F3F19F426F40C94B40ECF
:101A80000EF4E095E7FB0C94AE0EE92F0E94FD0EDC
:101A900058F3BA17620773078407950720F079F4A3
:101AA000A6F50C941F0F0EF4E0950B2EBA2FA02D67
:101AB0000B01B90190010C01CA01A0011124FF27FB
:101AC000591B99F0593F50F4503E68F11A16F040F6
:101AD000A22F232F342F4427585FF3CF46953795F5
:101AE0002795A795F0405395C9F77EF41F16BA0BBA
:101AF000620B730B840BBAF09150A1F0FF0FBB1F68
:101B0000661F771F881FC2F70EC0BA0F621F731FB0
:101B1000841F48F4879577956795B795F7959E3F0D
:101B200008F0B0CF9395880F08F09927EE0F97959E
:101B300087950895DF93DD27B92FBF7740E85FE3EE
:101B40001616170648075B0718F4D92F0E942B0FAB
:101B50009F938F937F936F930E94E60FECEAF0E0E0
:101B60000E94B70E0E94EC0E2F913F914F915F9112
:101B70000E94460FDD2351F09058A2EA2AED3FE083
:101B800049EC5FE3D0785D270E94450DDF910C940E
:101B9000EC0E0E94DD0D0C94EC0E0E94E50E58F048
:101BA0000E94DE0E40F029F45F3F29F00C94AE0E47
:101BB00051110C94200F0C94B40E0E94FD0E68F38A
:101BC0009923B1F3552391F3951B550BBB27AA27F6
:101BD00062177307840738F09F5F5F4F220F331F30
:101BE000441FAA1FA9F335D00E2E3AF0E0E832D0F8
:101BF00091505040E695001CCAF72BD0FE2F29D0FB
:101C0000660F771F881FBB1F261737074807AB07CC
:101C1000B0E809F0BB0B802DBF01FF2793585F4F41
:101C20003AF09E3F510578F00C94AE0E0C94200FC4
:101C30005F3FE4F3983ED4F3869577956795B79523
:101C4000F7959F5FC9F7880F911D9695879597F92E
:101C50000895E1E0660F771F881FBB1F62177307A7
:101C60008407BA0720F0621B730B840BBA0BEE1FBC
:101C700088F7E09508950E94420E6894B1110C9483
:101C8000200F08950E94050F88F09F5798F0B92FF4
:101C90009927B751B0F0E1F0660F771F881F991FA1
:101CA0001AF0BA95C9F714C0B13091F00E941F0F15
:101CB000B1E008950C941F0F672F782F8827B85F25
:101CC00039F0B93FCCF3869577956795B395D9F7F9
:101CD0003EF490958095709561957F4F8F4F9F4F03
:101CE0000895E89409C097FB3EF49095809570950F
:101CF00061957F4F8F4F9F4F9923A9F0F92F96E958
:101D0000BB279395F695879577956795B795F111CC
:101D1000F8CFFAF4BB0F11F460FF1BC06F5F7F4F69
:101D20008F4F9F4F16C0882311F096E911C077237B
:101D300021F09EE8872F762F05C0662371F096E884
:101D4000862F70E060E02AF09A95660F771F881F53
:101D5000DAF7880F9695879597F9089597F99F6711
:101D600080E870E060E008959FEF80EC0895DF93D5
:101D7000CF931F930F93FF92EF92DF927B018C0121
:101D8000689406C0DA2EEF010E94460FFE01E89427
:101D9000A5912591359145915591A6F3EF010E94AA
:101DA000450DFE019701A801DA9469F7DF90EF90E5
:101DB000FF900F911F91CF91DF91089500240A9415
:101DC0001616170618060906089500240A94121616
:101DD0001306140605060895092E0394000C11F449
:101DE000882352F0BB0F40F4BF2B11F460FF04C0F6
:101DF0006F5F7F4F8F4F9F4F089557FD9058440F4F
:101E0000551F59F05F3F71F04795880F97FB991F59
:101E100061F09F3F79F08795089512161306140616
:101E2000551FF2CF4695F1DF08C0161617061806A3
:101E3000991FF1CF86957105610508940895E8947E
:101E4000BB2766277727CB0197F908950E94EA0FF1
:101E500008F48FEF08959B01AC0160E070E080E82A
:101E60009FE30C94C90D0E94460F0C94EC0E0E9447
:101E7000DE0E38F00E94E50E20F0952311F00C9450
:101E8000AE0E0C94B40E11240C94200F0E94FD0E83
:101E900070F3959FC1F3950F50E0551F629FF001BD
:101EA000729FBB27F00DB11D639FAA27F00DB11DD6
:101EB000AA1F649F6627B00DA11D661F829F22275F
:101EC000B00DA11D621F739FB00DA11D621F839FE6
:101ED000A00D611D221F749F3327A00D611D231FBC
:101EE000849F600D211D822F762F6A2F11249F570A
:101EF00050409AF0F1F088234AF0EE0FFF1FBB1F0D
:101F0000661F771F881F91505040A9F79E3F5105CB
:101F100080F00C94AE0E0C94200F5F3FE4F3983EDB
:101F2000D4F3869577956795B795F795E7959F5F75
:101F3000C1F7FE2B880F911D9695879597F9089507
:101F400019F416F40C94B40E0C940E100E94050FA4
:101F5000B8F39923C9F3B6F39F57550B87FF0E9437
:101F60001C100024A0E640EA9001805856959795F1
:101F700028F4805C660F771F881F20F0261737072C
:101F8000480730F4621B730B840B202931294A2B3C
:101F9000A69517940794202531254A2758F7660FF0
:101FA000771F881F20F026173707480730F4620B89
:101FB000730B840B200D311D411DA09581F7B901D4
:101FC000842F9158880F9695879508959B01AC01B1
:101FD0000C94330F990F0008550FAA0BE0E8FEEFA1
:101FE00016161706E807F907C0F012161306E407DD
:101FF000F50798F0621B730B840B950B39F40A26D6
:1020000061F0232B242B252B21F408950A2609F4B3
:10201000A140A6958FEF811D811D08959F3F31F04E
:10202000915020F4879577956795B795880F911D06
:102030009695879597F9089591505040660F771FB0
:10204000881FD2F70895A1E21A2EAA1BBB1BFD011F
:102050000DC0AA1FBB1FEE1FFF1FA217B307E40787
:10206000F50720F0A21BB30BE40BF50B661F771FDF
:10207000881F991F1A9469F76095709580959095BF
:102080009B01AC01BD01CF010895A29FB001B39F98
:10209000C001A39F700D811D1124911DB29F700D71
:0C20A000811D1124911D0895F894FFCFBC
:1020AC000A726563656976653A2073656E643A20D9
:1020BC0073746172743A204572726F72203A20CD3B
:0A20CC00CCCC3D00400000034300AF
:040000050080011066
:00000001FF
