:100000000C946D000C948A000C948A000C948A0065
:100010000C948A000C948A000C948A000C94300C86
:100020000C948A000C940F0D0C948A000C948A0096
:100030000C948A000C948A000C948A000C948A0018
:100040000C94C30F0C948A000C948A000C948A00C0
:100050000C94B90F0C94B30E0C948A000C948A0083
:100060000C948A000C94BF100C948A000C948A00A3
:100070000C948A000C948A000C948A000C946E10E4
:100080000C948A000C948A000C948A000C946410DE
:100090000C948A000C948A000C948A000C948A00B8
:1000A0000C948A000C948A000C948A00084AD73B6E
:1000B0003BCE016E84BCBFFDC12F3D6C74319ABD37
:1000C00056833DDA3D00C77F11BED9E4BB4C3E915B
:1000D0006BAAAABE000000803F0011241FBECFEF14
:1000E000DAE0DEBFCDBF11E0A0E0B1E0E2E3F8E28C
:1000F00002C005900D92AA32B107D9F721E0AAE219
:10010000B1E001C01D92AC3AB207E1F70E94C50808
:100110000C9417140C9400008B3609F4DFC040F5E2
:10012000853609F491C090F4823609F45AC038F447
:10013000882309F41DC1813609F442C01DC18336EC
:1001400009F460C0843609F46EC016C1883609F41B
:10015000A3C038F4863609F488C0873609F496C0FF
:100160000BC1893609F49EC08A3609F4A9C004C1BE
:10017000813709F4E5C090F48E3609F4D0C038F424
:100180008C3609F4B9C08D3609F4C4C0F5C08F3679
:1001900009F4CAC0803709F4CEC0EEC0843709F430
:1001A000DEC038F4823709F4D0C0833709F4D2C0F6
:1001B000E3C0853709F4E3C08F3F09F4D5C0DCC044
:1001C00080E00E94480560919401709195018091B2
:1001D0009601909197010E940612862F0E94A2100C
:1001E000089580E00E94480560917801709179013E
:1001F00080917A0190917B010E940612862F0E94C5
:10020000A210089580E00E94480560918C017091D1
:100210008D0180918E0190918F010E940612862F90
:100220000E94A210089580E00E94D2056091900182
:100230007091910180919201909193010E94061218
:10024000862F0E94A210089580E00E94D20560913E
:1002500098017091990180919A0190919B010E945F
:100260000612862F0E94A210089580E00E94D205F7
:1002700060916E0170916F01809170019091710198
:100280000E940612862F0E94A210089580E00E940C
:1002900022050E94A210089580E00E9410050E948D
:1002A000A210089560917C0170917D0180917E0182
:1002B00090917F010E940612862F0E94A21008953D
:1002C00060918101709182018091830190918401FC
:1002D0000E940612862F0E94A210089560913A0192
:1002E00070913B0180913C0190913D010E9406126A
:1002F000862F0E94A21008956091360170913701F7
:1003000080913801909139010E940612862F0E9437
:10031000A2100895809180010E94A21008958091FA
:100320008B010E94A21008958091AA019091AB01C7
:100330000E94A2100895809165010E94A210089564
:10034000809164010E94A2100895809163010E942F
:10035000A2100895809162010E94A21008958091D8
:1003600061010E94A210089580E70E94A2100895E2
:1003700081E70E94A210089585E60E94A2100895C8
:100380008CE08093B8001092B9000895CF93DF936A
:1003900084EA8093BC00ECEBF0E080818823ECF7EA
:1003A0008091B900887F8830E1F08091B900887F22
:1003B0008031C9F068E087E191E00E94AA1067E00F
:1003C00080E191E00E94AA10C9EBD0E08881887F8B
:1003D0000E94A210809100010E94A2108881887F53
:1003E00003C080E001C080E0DF91CF910895CF93FA
:1003F000DF93806D8093BB0084E88093BC00ECEBBE
:10040000F0E080818823ECF78091B900887F803408
:10041000E1F08091B900887F8831C9F068E087E118
:1004200091E00E94AA1066E08AE091E00E94AA1082
:10043000C9EBD0E08881887F0E94A21080910001E2
:100440000E94A2108881887F03C080E001C080E004
:10045000DF91CF910895CF93DF938093BB0084E821
:100460008093BC00ECEBF0E080818823ECF7809176
:10047000B900887F8832B9F068E087E191E00E9496
:10048000AA1066E08AE091E00E94AA10C9EBD0E0D1
:100490008881887F0E94A210809100010E94A21092
:1004A0008881887F01C080E0DF91CF910895CF934C
:1004B000DF9384EC8093BC00ECEBF0E08081882338
:1004C000ECF78091B900887F803519F48091BB00EA
:1004D00016C068E087E191E00E94AA1069E081E01F
:1004E00091E00E94AA10C9EBD0E08881887F0E9429
:1004F000A210809100010E94A2108881887FDF9164
:10050000CF910895CF93DF9384E88093BC00ECEB08
:10051000F0E080818823ECF78091B900887F8835EE
:1005200019F48091BB0016C068E087E191E00E9459
:10053000AA1069E081E091E00E94AA10C9EBD0E026
:100540008881887F0E94A210809100010E94A210E1
:100550008881887FDF91CF91089584E98093BC00E2
:100560000895CF93DF93C82FD62F0E94C60180E055
:100570000E94F701882321F08091B900887F15C07F
:100580008C2F0E942B02882321F08091B900887F54
:100590000CC08D2F0E942B02882321F08091B9007E
:1005A000887F03C094E99093BC00DF91CF910895B8
:1005B000CF93C82F0E94C601882321F08091B900F3
:1005C000887F28C080E00E94F701882321F0809175
:1005D000B900887F1FC08C2F0E942B02882321F036
:1005E0008091B900887F16C00E94C601882321F03F
:1005F0008091B900887F0EC081E00E94F7018823B6
:1006000021F08091B900887F05C00E94820294E9A0
:100610009093BC00CF910895CF93C82F0E94C6013C
:10062000882329F08091B900887F90E02FC080E076
:100630000E94F701882329F08091B900887F90E01B
:1006400025C08C2F0E942B02882329F08091B900AD
:10065000887F90E01BC00E94C601882329F080910A
:10066000B900887F90E012C081E00E94F7018823E2
:1006700029F08091B900887F90E008C00E9457025D
:100680000E94820294E99093BC0090E0CF9108957B
:10069000CF93C82F0E94C601811195C00E94F70117
:1006A000811193C08BE30E942B02811190C00E94A4
:1006B000C60181118EC081E00E94F70181118BC0BB
:1006C0000E94570290E0982F882790938A01809388
:1006D00089010E9457022091890130918A01282BBB
:1006E00030938A01209389010E94570290E0982F4D
:1006F000882790937701809376010E94570220917A
:10070000760130917701282B309377012093760181
:100710000E94570290E0982F882790938801809339
:1007200087010E9482022091870130918801282B45
:1007300030938801209387010E94AD02C13009F0F7
:100740004CC08091890190918A0120912E013091B5
:100750002F01821B930B90938A01809389018091D2
:1007600076019091770120912C0130912D01821B0F
:10077000930B9093770180937601209187013091BC
:10078000880180912A0190912B01821793076CF4C4
:1007900020918701309188013052820F931F9093EE
:1007A00088018093870180E019C0209187013091F2
:1007B0008801305EA901481B590B50938801409372
:1007C000870180E00BC08FEF09C08FEF07C08FEF6C
:1007D00005C08FEF03C08FEF01C080E0CF91089577
:1007E000CF93C82F0E94C60181117EC00E94F701DD
:1007F00081117CC083E40E942B02811179C00E9488
:10080000C601811177C081E00E94F701811174C097
:100810000E94570290E0982F88279093860180933A
:1008200085010E9457022091850130918601282B75
:1008300030938601209385010E94570290E0982F03
:10084000882790937501809374010E94570220912C
:10085000740130917501282B309375012093740138
:100860000E94570290E0982F8827909373018093FD
:1008700072010E9482022091720130917301282B33
:100880003093730120937201C13051F5809185013D
:10089000909186012091340130913501821B930B98
:1008A00090938601809385018091740190917501E8
:1008B0002091320130913301821B930B909375018B
:1008C00080937401809172019091730120913001A5
:1008D00030913101821B930B9093730180937201CD
:1008E0000E94AD0280E009C08FEF07C08FEF05C006
:1008F0008FEF03C08FEF01C08FEFCF91089562E0BB
:100900008AE10E94B102811177C068E08BE10E9408
:10091000B102811173C068E08CE10E94B1028111C3
:100920006FC060E083E20E94B10281116BC060E0A1
:1009300084E20E94B102811167C060E087E30E94F7
:10094000B102811163C060E088E30E94B1028111AD
:100950005FC060E08AE60E94B10281115BC061E085
:100960008BE60E94B102811157C085E70E94D80230
:10097000883609F053C02FEF83EC99E02150804076
:100980009040E1F700C0000080E00E9448038091A1
:10099000890190918A0190932F0180932E0180917B
:1009A00076019091770190932D0180932C01809195
:1009B00087019091880190932B0180932A0180E018
:1009C0000E94F003809185019091860190933501FA
:1009D000809334018091740190917501909333015B
:1009E0008093320180917201909173019093310153
:1009F0008093300188E608958FEF08958FEF089572
:100A00008FEF08958FEF08958FEF08958FEF08957A
:100A10008FEF08958FEF08958FEF08958EEF08956B
:100A2000CF93DF93D82F85E70E94D802C82FD1300B
:100A300029F40E94A2108AE00E94A2108C2FDF915C
:100A4000CF910895CF93DF93D82F8BE30E940C03AF
:100A5000BC0180E090E00E94351220E030E04AEADC
:100A600053E40E948D1128EB3EE142E152E40E94E2
:100A7000F2100E94FF11C62FD13031F4862F0E9450
:100A8000A2108AE00E94A2108C2FDF91CF910895CE
:100A9000CF93C82F6091890170918A01072E000CB5
:100AA000880B990B0E94371220E030E040E059E3B8
:100AB0000E94F21223E333E344EC52E40E94F21268
:100AC00060939401709395018093960190939701A0
:100AD0006091760170917701072E000C880B990BBD
:100AE0000E94371220E030E040E059E30E94F21209
:100AF00023E333E344EC52E40E94F2126093780162
:100B00007093790180937A0190937B0160918701C2
:100B100070918801072E000C880B990B0E943712E8
:100B200020E030E040E059E30E94F21223E333E397
:100B300044EC52E40E94F21260938C0170938D0198
:100B400080938E0190938F01C13051F56091940193
:100B50007091950180919601909197010E940612E3
:100B6000862F0E94A2106091780170917901809186
:100B70007A0190917B010E940612862F0E94A2109A
:100B800060918C0170918D0180918E0190918F0107
:100B90000E940612862F0E94A2108AE00E94A210D4
:100BA000CF910895CF93C82F6091850170918601F0
:100BB000072E000C880B990B0E94371220E030E0C2
:100BC00042E852E40E948D1160939001709391016C
:100BD00080939201909393016091740170917501DB
:100BE000072E000C880B990B0E94371220E030E092
:100BF00042E852E40E948D1160939801709399012C
:100C000080939A0190939B0160917201709173019E
:100C1000072E000C880B990B0E94371220E030E061
:100C200042E852E40E948D1160936E0170936F014F
:100C30008093700190937101C13051F560919001E2
:100C40007091910180919201909193010E940612FE
:100C5000862F0E94A2106091980170919901809155
:100C60009A0190919B010E940612862F0E94A21069
:100C700060916E0170916F0180917001909171018E
:100C80000E940612862F0E94A2108AE00E94A210E3
:100C9000CF9108954F925F926F927F928F929F9221
:100CA000AF92BF92CF92DF92EF92FF92CF93DF93FA
:100CB000CDB7DEB72D970FB6F894DEBF0FBECDBF10
:100CC0008D878091940190919501A0919601B091AA
:100CD00097018D839E83AF83B887C0907801D090B1
:100CE0007901E0907A01F0907B01809078019090FA
:100CF0007901A0907A01B0907B0140908C015090D6
:100D00008D0160908E0170908F0180918C01909187
:100D10008D01A0918E01B0918F0189839A83AB835D
:100D2000BC83A5019401C701B6010E94F212698734
:100D30007A878B879C87A5019401C701B6010E9421
:100D4000F2126B017C0129813A814B815C81C301E4
:100D5000B2010E94F2129B01AC01C701B6010E94D0
:100D6000F2100E9465139B01AC016D817E818F8121
:100D700098850E948D110E945E1120E030E044E3CE
:100D800053E40E94F21226E53EE049E450E40E945A
:100D90008D110E94FF11062E000C770B880B990B0A
:100DA0000E94371260937C0170937D0180937E01D5
:100DB00090937F018091780190917901A0917A01BF
:100DC000B0917B018D839E83AF83B887C0909401DF
:100DD000D0909501E0909601F09097018090940159
:100DE00090909501A0909601B090970140908C0151
:100DF00050908D0160908E0170908F0180918C01D8
:100E000090918D01A0918E01B0918F0189839A8379
:100E1000AB83BC83A5019401C701B6010E94F21205
:100E200069877A878B879C87A5019401C701B601E2
:100E30000E94F2126B017C0129813A814B815C8115
:100E4000C301B2010E94F2129B01AC01C701B601BD
:100E50000E94F2100E9465139B01AC016D817E819E
:100E60008F8198850E948D110E945E1120E030E0F4
:100E700044E353E40E94F21226E53EE049E450E4E4
:100E80000E948D110E94FF11062E000C770B880B1B
:100E9000990B0E94371260938101709382018093B5
:100EA0008301909384019D859130E9F460917C01E8
:100EB00070917D0180917E0190917F010E940612C8
:100EC000862F0E94A2106091810170918201809111
:100ED0008301909184010E940612862F0E94A21025
:100EE0008AE00E94A2102D960FB6F894DEBF0FBEC6
:100EF000CDBFDF91CF91FF90EF90DF90CF90BF906B
:100F0000AF909F908F907F906F905F904F900895DB
:100F10008F929F92AF92BF92CF92DF92EF92FF9209
:100F2000CF93C82F60916A0170916B0180916C0121
:100F300090916D010E94FF0EBC0180E090E00E9444
:100F400035126B017C01209190013091910140910B
:100F500092015091930180903A0190903B01A090B2
:100F60003C01B0903D010E94F21220E030E342E7E4
:100F700058E40E948D11A50194010E94F210609323
:100F80003A0170933B0180933C0190933D01209185
:100F900098013091990140919A0150919B01809064
:100FA000360190903701A0903801B0903901C70107
:100FB000B6010E94F21220E030E342E758E40E94BA
:100FC0008D11A50194010E94F21060933601709377
:100FD0003701809338019093390180916801909195
:100FE000690190936D0180936C01809166019091ED
:100FF000670190936B0180936A01C13001F5809184
:10100000360190913701A0913801B0913901BC01AE
:10101000CD0190580E940612862F0E94A210609166
:101020003A0170913B0180913C0190913D010E94F9
:101030000612862F0E94A2108AE00E94A210CF9171
:10104000FF90EF90DF90CF90BF90AF909F908F90E8
:1010500008954F925F926F927F928F929F92AF927C
:10106000BF92CF92DF92EF92FF92CF93DF9300D0A7
:1010700000D01F92CDB7DEB78D83C0901F01D090F6
:101080002001E0902101F090220140907C015090DD
:101090007D0160907E0170907F01A701960160E064
:1010A00070E080E89FE30E94F11069837A838B836C
:1010B0009C838090360190903701A0903801B090C9
:1010C0003901A3019201C701B6010E94F2122B015E
:1010D0003C01A501940169817A818B819C810E94E8
:1010E000F2129B01AC01C301B2010E94F1100E94F7
:1010F000FF11609380012091810130918201409124
:1011000083015091840140903A0150903B016090DE
:101110003C0170903D01C701B6010E94F2126B01C3
:101120007C01A301920169817A818B819C810E945B
:10113000F2129B01AC01C701B6010E94F2100E949D
:10114000FF1160938B018D81813059F48091800172
:101150000E94A21080918B010E94A2108AE00E943E
:10116000A2100F900F900F900F900F90DF91CF91E2
:10117000FF90EF90DF90CF90BF90AF909F908F90B7
:101180007F906F905F904F9008951AB88FE08BB961
:101190008FEF84B90E94DA0F0E94C00180E091EEC7
:1011A0000E9478100E947F040E94A2100E946C0E80
:1011B000789411E0C2E3D12FC09361018091610165
:1011C0008A3118F0D093580102C0109258018091D2
:1011D0005801813089F7812F0E944803812F0E9496
:1011E000F00380E00E94480580E00E94D20580E084
:1011F0000E944A0680E00E948807812F0E942908E9
:101200000E94950B0E94CD0BD7CF4F925F926F92A9
:101210007F92AF92BF92CF92DF92EF92FF920F93A5
:101220001F93CF93DF93809180012091640134E676
:101230008302C00111246AE570E00E94BE13C62F2C
:10124000C21BC093A00106E211E0F801B080CB9D63
:10125000B02C1124B092A601E090AA01F090AB014D
:1012600066B570E080E090E00E9435122BEB32E929
:1012700049E856E30E94F2122B013C01B70180E0DD
:1012800090E00E9435129B01AC01C301B2010E94A3
:10129000F21020914F013091500140915101509135
:1012A00052010E94F1106B017C0160934301709325
:1012B00044018093450190934601D0E0F80181817B
:1012C0008C9FB0018D9F700D1124072E000C880B90
:1012D000990B0E943712A70196010E94F2122B016E
:1012E0003C016091A20170E080E090E00E94371222
:1012F0009B01AC01C301B2010E94F2100E940612D0
:10130000A62E6093A2018091A301BE01681B710902
:10131000072E000C880B990B0E943712A70196012B
:101320000E948D116B017C01F801628170E080E008
:1013300090E00E9437129B01AC01C701B6010E94E8
:10134000F2120E94061260939F016A0DB60EB092CF
:101350009C01C091AA01D091AB0166B570E080E01C
:1013600090E00E9435122BEB32E949E856E30E94E7
:10137000F2126B017C01BE0180E090E00E94351208
:101380009B01AC01C701B6010E94F21060934F01AE
:10139000709350018093510190935201DF91CF914E
:1013A0001F910F91FF90EF90DF90CF90BF90AF9083
:1013B0007F906F905F904F9008954F925F926F92E1
:1013C0007F92AF92BF92CF92DF92EF92FF920F93F4
:1013D0001F93CF93DF9380918B012091630134E6BB
:1013E0008302C00111246AE570E00E94BE13C62F7B
:1013F000C21BC093A70103E211E0F801B080CB9DAE
:10140000B02C1124B092A601E090AA01F090AB019B
:1014100066B570E080E090E00E9435122BEB32E977
:1014200049E856E30E94F2122B013C01B70180E02B
:1014300090E00E9435129B01AC01C301B2010E94F1
:10144000F21020914B0130914C0140914D0150918F
:101450004E010E94F1106B017C0160934301709377
:1014600044018093450190934601D0E0F8018181C9
:101470008C9FB0018D9F700D1124072E000C880BDE
:10148000990B0E943712A70196010E94F2122B01BC
:101490003C016091A20170E080E090E00E94371270
:1014A0009B01AC01C301B2010E94F2100E9406121E
:1014B000A62E6093A2018091A101BE01681B710953
:1014C000072E000C880B990B0E943712A70196017A
:1014D0000E948D116B017C01F801628170E080E057
:1014E00090E00E9437129B01AC01C701B6010E9437
:1014F000F2120E94061260939F016A0DB60EB0921E
:101500009D01C091AA01D091AB0166B570E080E069
:1015100090E00E9435122BEB32E949E856E30E9435
:10152000F2126B017C01BE0180E090E00E94351256
:101530009B01AC01C701B6010E94F21060934B0100
:1015400070934C0180934D0190934E01DF91CF91A8
:101550001F910F91FF90EF90DF90CF90BF90AF90D1
:101560007F906F905F904F9008954F925F926F922F
:101570007F92AF92BF92CF92DF92EF92FF920F9342
:101580001F93CF93DF9360916E0170916F018091F3
:10159000700190917101D09162010E94FF1124E6C7
:1015A0006202C00111246AE570E00E94BE13C62FDA
:1015B000CD1BC093A40103E511E0F801B080CB9DE1
:1015C000B02C1124B092A601E090AA01F090AB01DA
:1015D00066B570E080E090E00E9435122BEB32E9B6
:1015E00049E856E30E94F2122B013C01B70180E06A
:1015F00090E00E9435129B01AC01C301B2010E9430
:10160000F2102091470130914801409149015091D9
:101610004A010E94F1106B017C01609343017093B9
:1016200044018093450190934601D0E0F801818107
:101630008C9FB0018D9F700D1124072E000C880B1C
:10164000990B0E943712A70196010E94F2122B01FA
:101650003C016091A20170E080E090E00E943712AE
:101660009B01AC01C301B2010E94F2100E9406125C
:10167000A62E6093A2018091A501BE01681B71098D
:10168000072E000C880B990B0E943712A7019601B8
:101690000E948D116B017C01F801628170E080E095
:1016A00090E00E9437129B01AC01C701B6010E9475
:1016B000F2120E94061260939F016A0DB60EB0925C
:1016C0009E01C091AA01D091AB0166B570E080E0A7
:1016D00090E00E9435122BEB32E949E856E30E9474
:1016E000F2126B017C01BE0180E090E00E94351295
:1016F0009B01AC01C701B6010E94F2106093470143
:10170000709348018093490190934A01DF91CF91F2
:101710001F910F91FF90EF90DF90CF90BF90AF900F
:101720007F906F905F904F90089580916501863013
:1017300050F10E9405090E94DD090E94B50AECE9FA
:10174000F1E030818091650121819281830F890FC1
:10175000821B8093420180916501432F420F840FC9
:10176000891B8093410180916501422F490F840FAD
:10177000831B8093400180916501831B821B891B21
:1017800080933F01089585E0809342018093410159
:101790008093400180933F0108950F931F934091E0
:1017A000400145361CF4453024F402C044E601C033
:1017B00045E06091420165361CF4653024F402C0B6
:1017C00064E601C065E08091410185361CF48530F6
:1017D00024F402C084E601C085E001E010E024EFBB
:1017E00031E00E945A0F80913F0185361CF485300C
:1017F00024F402C084E601C085E041E050E064EFDB
:1018000071E00E9421101F910F9108958FB7F894F5
:10181000E69AEE9A8FBF0895CF93CFB7F8948CB322
:101820008CBBEAE6F0E08081806380830E94060C36
:10183000CFBFCF910895CF93CFB7F894E69AEAE659
:10184000F0E080818F7E80830E94060CCFBFCF9115
:10185000089591E09093680080936B009BBB08957E
:101860001F920F920FB60F9211244F925F926F92B8
:101870007F928F929F92AF92BF92CF92DF92EF9220
:10188000FF922F933F934F935F936F937F938F9329
:101890009F93AF93BF93CF93EF93FF9380915601A4
:1018A00081115CC0E090AA01F090AB0166B5809018
:1018B0005D0190905E01A0905F01B090600170E0CA
:1018C00080E090E00E9437122DEB37E346E856E3C4
:1018D0000E94F2122B013C01B70180E090E00E94CF
:1018E00035129B01AC01C301B2010E94F210A501A7
:1018F00094010E94F1106093590170935A018093F2
:101900005B0190935C01E090AA01F090AB0166B599
:1019100070E080E090E00E9437122DEB37E346E85C
:1019200056E30E94F2124B015C01B70180E090E0A7
:101930000E9435129B01AC01C501B4010E94F21056
:1019400060935D0170935E0180935F0190936001ED
:101950000E941B0C81E08093560143C06091AA0154
:101960007091AB0180905D0190905E01A0905F014D
:10197000B0906001C6B5C0905901D0905A01E09076
:101980005B01F0905C0180E090E00E943512A501BF
:1019900094010E94F1104B015C016C2F70E080E01B
:1019A00090E00E9437122DEB37E346E856E30E94A1
:1019B000F2129B01AC01C501B4010E94F21020E0BB
:1019C00030E048EC52E40E94F212A70196010E9416
:1019D0008D110E940612609365010E940C0C1092FA
:1019E0005601FF91EF91CF91BF91AF919F918F9150
:1019F0007F916F915F914F913F912F91FF90EF9069
:101A0000DF90CF90BF90AF909F908F907F906F901E
:101A10005F904F900F900FBE0F901F9018951F92E0
:101A20000F920FB60F9211248F929F92AF92BF9296
:101A3000CF92DF92EF92FF922F933F934F935F935A
:101A40006F937F938F939F93AF93BF93CF93EF93B6
:101A5000FF9393B1809157019093570120915601C4
:101A60008927843009F450C018F4823041F01AC13B
:101A7000883009F48EC0803109F4D0C013C1809140
:101A80005601813009F00EC16091AA017091AB013D
:101A900080905D0190905E01A0905F01B090600128
:101AA000C6B5C0905901D0905A01E0905B01F0900A
:101AB0005C0180E090E00E943512A50194010E9433
:101AC000F1104B015C016C2F70E080E090E00E940F
:101AD00037122DEB37E346E856E30E94F2129B01E2
:101AE000AC01C501B4010E94F21020E030E048ECE6
:101AF00052E40E94F212A70196010E948D110E94E9
:101B0000061260936201CEC080915601813009F0C7
:101B1000C9C06091AA017091AB0180905D01909065
:101B20005E01A0905F01B0906001C6B5C090590100
:101B3000D0905A01E0905B01F0905C0180E090E071
:101B40000E943512A50194010E94F1104B015C0125
:101B50006C2F70E080E090E00E9437122DEB37E3AD
:101B600046E856E30E94F2129B01AC01C501B401A4
:101B70000E94F21020E030E048EC52E40E94F212A1
:101B8000A70196010E948D110E94061260936301C5
:101B900089C080915601813009F084C06091AA010A
:101BA0007091AB0180905D0190905E01A0905F010B
:101BB000B0906001C6B5C0905901D0905A01E09034
:101BC0005B01F0905C0180E090E00E943512A5017D
:101BD00094010E94F1104B015C016C2F70E080E0D9
:101BE00090E00E9437122DEB37E346E856E30E945F
:101BF000F2129B01AC01C501B4010E94F21020E079
:101C000030E048EC52E40E94F212A70196010E94D3
:101C10008D110E9406126093640144C080915601A8
:101C2000813009F03FC06091AA017091AB018090B2
:101C30005D0190905E01A0905F01B0906001C6B51B
:101C4000C0905901D0905A01E0905B01F0905C0186
:101C500080E090E00E943512A50194010E94F110ED
:101C60004B015C016C2F70E080E090E00E94371225
:101C70002DEB37E346E856E30E94F2129B01AC01DC
:101C8000C501B4010E94F21020E030E048EC52E4BB
:101C90000E94F212A70196010E948D110E94061265
:101CA00060936101FF91EF91CF91BF91AF919F91AF
:101CB0008F917F916F915F914F913F912F91FF9005
:101CC000EF90DF90CF90BF90AF909F908F900F904C
:101CD0000FBE0F901F9018950E940C0C0E94060CCE
:101CE00080E80E94290C089580349105D1F030F4E9
:101CF000009769F08830910581F01FC0811521E0BF
:101D0000920799F0811524E0920799F016C085B5E5
:101D1000816085BD81E090E0089525B5226025BDF4
:101D2000089525B5236025BD089525B5246025BDFA
:101D3000089525B5266025BD089585B5816085BDCA
:101D400081E090E00895CF93C82FCB0122E024BD1D
:101D50000E94740EC7BDCF910895EEE6F0E0808139
:101D60008260808308951F920F920FB60F92112404
:101D70002F938F939F938091AA019091AB0101962D
:101D80009093AB018093AA018091680190916901C1
:101D900088509F4F909369018093680180916801FA
:101DA0009091690187309F4F48F080916601909132
:101DB0006701019690936701809366018091AA0163
:101DC0009091AB01019649F48091A8019091A901ED
:101DD00001969093A9018093A80188B18F3F11F4D7
:101DE00018B805C088B1811102C08FEF88B99F91E2
:101DF0008F912F910F900FBE0F901F9018954091CB
:101E0000660150916701E6B5209168013091690142
:101E10002E0F311DF901E81BF90BCF01461B570BA3
:101E2000841B950B089584B1806E84B9E0E8F0E0DE
:101E30008081886A808380E1809381000895803466
:101E40009105F1F030F4009769F08830910591F038
:101E500029C0811521E09207C9F0811524E092077D
:101E6000D9F020C0E1E8F0E080818160808381E0EA
:101E700090E00895E1E8F0E0208122602083089559
:101E8000E1E8F0E02081236020830895E1E8F0E0BC
:101E90002081246020830895E1E8F0E0208126601D
:101EA00020830895E1E8F0E080818160808381E013
:101EB00090E008958F929F92AF92BF92DF92EF923F
:101EC000FF920F931F93CF93DF93D82EE62EF42E1D
:101ED000E901C8010E941F0FCC0FDD1F9C01C29FAA
:101EE000C001C39F900DD29F900D11249C0140E032
:101EF00050E060E074E284EF90E00E94D213490168
:101F00005A013695279536952795ABE7B4E10E949F
:101F1000F41396958795D89EB001D99E700D112423
:101F2000E89EA001E99E500D1124F89E9001F99EB3
:101F3000300D11248FB7F89490928700809286001C
:101F4000709389006093880050938B0040938A00BF
:101F500030938D0020938C008FBFDF91CF911F9124
:101F60000F91FF90EF90DF90BF90AF909F908F9078
:101F700008951F920F920FB60F9211240F900FBE6B
:101F80000F901F9018951F920F920FB60F92112469
:101F90000F900FBE0F901F90189580E487B9E0E96D
:101FA000F0E0808180688083E1E9F0E080818061F9
:101FB000808308950E94130F0E94CD0F60E470E0AB
:101FC00088EF0E94A30E0E94AD0E08958034910503
:101FD000F1F030F4009769F08830910591F029C054
:101FE000811521E09207C9F0811524E09207D9F00C
:101FF00020C0E1E9F0E080818160808381E090E0B1
:102000000895E1E9F0E02081226020830895E1E96C
:10201000F0E02081236020830895E1E9F0E0208151
:10202000246020830895E1E9F0E020812660208388
:102030000895E1E9F0E080818160808381E090E0B3
:102040000895CF92DF92EF92FF921F93CF93DF9389
:10205000182FEB01CA010E94E60FCC0FDD1F9C0177
:10206000C29FC001C39F900DD29F900D11249C016F
:1020700040E050E060E074E284EF90E00E94D21310
:1020800069017A013695279536952795ABE7B4E136
:102090000E94F41396958795189F9001199F300D13
:1020A00011248FB7F894D0929700C0929600309385
:1020B0009900209398008FBFDF91CF911F91FF90DF
:1020C000EF90DF90CF9008951F920F920FB60F926E
:1020D00011240F900FBE0F901F9018951F920F9212
:1020E0000FB60F9211240F900FBE0F901F901895EE
:1020F000A0E0B0E0880F991FAA1FBB1F880F991F8F
:10210000AA1FBB1F9C01AD01220F331F441F551F87
:10211000220F331F441F551F60E074E284EF90E0EC
:102120000E94D21321501092CD002093CC00E9ECF4
:10213000F0E080E8808386E08093CA008081886137
:1021400080830895E8ECF0E0908195FFFDCF8093C7
:10215000CE0008950F931F93CF93DF93662351F022
:102160008C01EC01060F111D89910E94A210C0176D
:10217000D107D1F7DF91CF911F910F9108951F9251
:102180000F920FB60F9211242F933F934F935F93AB
:102190006F937F938F939F93AF93BF93EF93FF932F
:1021A0008091CE0080933E0180913E010E94A2105A
:1021B00080913E0190E00E948C008AE00E94A21073
:1021C000FF91EF91BF91AF919F918F917F916F910F
:1021D0005F914F913F912F910F900FBE0F901F90E5
:1021E00018955058BB27AA270E9409110C94B012C9
:1021F0000E94A21238F00E94A91220F039F49F3FE9
:1022000019F426F40C9478120EF4E095E7FB0C9484
:102210007212E92F0E94C11258F3BA1762077307AE
:102220008407950720F079F4A6F50C94E3120EF4D8
:10223000E0950B2EBA2FA02D0B01B90190010C01D6
:10224000CA01A0011124FF27591B99F0593F50F4EE
:10225000503E68F11A16F040A22F232F342F442746
:10226000585FF3CF469537952795A795F04053953E
:10227000C9F77EF41F16BA0B620B730B840BBAF00E
:102280009150A1F0FF0FBB1F661F771F881FC2F779
:102290000EC0BA0F621F731F841F48F4879577958D
:1022A0006795B795F7959E3F08F0B0CF9395880F47
:1022B00008F09927EE0F979587950895DF93DD270E
:1022C000B92FBF7740E85FE31616170648075B078C
:1022D00018F4D92F0E94EA129F938F937F936F93E4
:1022E0000E94A513ECEAF0E00E947B120E94B0125B
:1022F0002F913F914F915F910E940513DD2351F083
:102300009058A2EA2AED3FE049EC5FE3D0785D27E0
:102310000E940911DF910C94B0120E94A1110C943B
:10232000B0120E94A91258F00E94A21240F029F4A3
:102330005F3F29F00C94721251110C94E4120C942A
:1023400078120E94C11268F39923B1F3552391F3D7
:10235000951B550BBB27AA2762177307840738F014
:102360009F5F5F4F220F331F441FAA1FA9F335D071
:102370000E2E3AF0E0E832D091505040E695001C25
:10238000CAF72BD0FE2F29D0660F771F881FBB1FDF
:10239000261737074807AB07B0E809F0BB0B802DBD
:1023A000BF01FF2793585F4F3AF09E3F510578F0E9
:1023B0000C9472120C94E4125F3FE4F3983ED4F351
:1023C000869577956795B795F7959F5FC9F7880FBD
:1023D000911D9695879597F90895E1E0660F771F0F
:1023E000881FBB1F621773078407BA0720F0621BA0
:1023F000730B840BBA0BEE1F88F7E09508950E94CB
:1024000006126894B1110C94E41208950E94C91246
:1024100088F09F5798F0B92F9927B751B0F0E1F0A5
:10242000660F771F881F991F1AF0BA95C9F714C055
:10243000B13091F00E94E312B1E008950C94E312E0
:10244000672F782F8827B85F39F0B93FCCF386958E
:1024500077956795B395D9F73EF4909580957095EB
:1024600061957F4F8F4F9F4F0895E89409C097FB68
:102470003EF490958095709561957F4F8F4F9F4F5B
:102480009923A9F0F92F96E9BB279395F69587959F
:1024900077956795B795F111F8CFFAF4BB0F11F462
:1024A00060FF1BC06F5F7F4F8F4F9F4F16C0882309
:1024B00011F096E911C0772321F09EE8872F762F3F
:1024C00005C0662371F096E8862F70E060E02AF080
:1024D0009A95660F771F881FDAF7880F969587956C
:1024E00097F9089597F99F6780E870E060E0089594
:1024F0009FEF80EC0895DF93CF931F930F93FF928C
:10250000EF92DF927B018C01689406C0DA2EEF0116
:102510000E940513FE01E894A591259135914591FE
:102520005591A6F3EF010E940911FE019701A80140
:10253000DA9469F7DF90EF90FF900F911F91CF91A0
:10254000DF91089500240A94161617061806090646
:10255000089500240A941216130614060506089519
:10256000092E0394000C11F4882352F0BB0F40F4A1
:10257000BF2B11F460FF04C06F5F7F4F8F4F9F4FE1
:10258000089557FD9058440F551F59F05F3F71F063
:102590004795880F97FB991F61F09F3F79F08795CA
:1025A0000895121613061406551FF2CF4695F1DF53
:1025B00008C0161617061806991FF1CF86957105E3
:1025C000610508940895E894BB2766277727CB0117
:1025D00097F908959B01AC0160E070E080E89FE30B
:1025E0000C948D110E9405130C94B0120E94A2123B
:1025F00038F00E94A91220F0952311F00C94721269
:102600000C94781211240C94E4120E94C11270F3FD
:10261000959FC1F3950F50E0551F629FF001729F87
:10262000BB27F00DB11D639FAA27F00DB11DAA1F96
:10263000649F6627B00DA11D661F829F2227B00DE3
:10264000A11D621F739FB00DA11D621F839FA00D6E
:10265000611D221F749F3327A00D611D231F849FBE
:10266000600D211D822F762F6A2F11249F57504015
:102670009AF0F1F088234AF0EE0FFF1FBB1F661F90
:10268000771F881F91505040A9F79E3F510580F059
:102690000C9472120C94E4125F3FE4F3983ED4F36E
:1026A000869577956795B795F795E7959F5FC1F7FD
:1026B000FE2B880F911D9695879597F9089519F42B
:1026C00016F40C9478120C94A9130E94C912B8F352
:1026D0009923C9F3B6F39F57550B87FF0E94B71391
:1026E0000024A0E640EA900180585695979528F47A
:1026F000805C660F771F881F20F026173707480772
:1027000030F4621B730B840B202931294A2BA695C8
:1027100017940794202531254A2758F7660F771F0D
:10272000881F20F026173707480730F4620B730B19
:10273000840B200D311D411DA09581F7B901842F17
:102740009158880F9695879508959B01AC010C943C
:10275000F2129F3F31F0915020F48795779567955D
:10276000B795880F911D9695879597F90895915083
:102770005040660F771F881FD2F7089597FB072EEA
:1027800016F4009407D077FD09D00E94031407FCCB
:1027900005D03EF4909581959F4F08957095619571
:1027A0007F4F0895A1E21A2EAA1BBB1BFD010DC08D
:1027B000AA1FBB1FEE1FFF1FA217B307E407F507F1
:1027C00020F0A21BB30BE40BF50B661F771F881FCD
:1027D000991F1A9469F760957095809590959B0163
:1027E000AC01BD01CF010895A29FB001B39FC0010C
:1027F000A39F700D811D1124911DB29F700D811D2D
:102800001124911D0895AA1BBB1B51E107C0AA1FEB
:10281000BB1FA617B70710F0A61BB70B881F991F81
:102820005A95A9F780959095BC01CD010895F8942B
:02283000FFCFD8
:102832000A726563656976653A2073656E643A204B
:1028420073746172743A204572726F72203A20CDAD
:0A285200CCCC3D040A05040A050081
:040000050080011066
:00000001FF
