S01400005061706572696E6F5F332E312E73726563E1
S11300000C946D000C948A000C948A000C948A0061
S11300100C948A000C948A000C948A000C94F10CC1
S11300200C948A000C947B0D0C948A000C948A0026
S11300300C948A000C948A000C948A000C948A0014
S11300400C94E60E0C948A000C948A000C948A009A
S11300500C94DC0E0C94C70D0C948A000C948A004A
S11300600C948A000C94E20F0C948A000C948A007D
S11300700C948A000C948A000C948A000C94910FBE
S11300800C948A000C948A000C948A000C94870FB8
S11300900C948A000C948A000C948A000C948A00B4
S11300A00C948A000C948A000C948A00084AD73B6A
S11300B03BCE016E84BCBFFDC12F3D6C74319ABD33
S11300C056833DDA3D00C77F11BED9E4BB4C3E9157
S11300D06BAAAABE000000803F0011241FBECFEF10
S11300E0DAE0DEBFCDBF11E0A0E0B1E0E8E7F6E280
S11300F002C005900D92A033B107D9F721E0A0E327
S1130100B1E001C01D92A33BB207E1F70E9486094A
S11301100C943A130C9400008B3609F4DFC040F5BC
S1130120853609F491C090F4823609F45AC038F443
S1130130882309F41DC1813609F442C01DC18336E8
S113014009F460C0843609F46EC016C1883609F417
S1130150A3C038F4863609F488C0873609F496C0FB
S11301600BC1893609F49EC08A3609F4A9C004C1BA
S1130170813709F4E5C090F48E3609F4D0C038F420
S11301808C3609F4B9C08D3609F4C4C0F5C08F3675
S113019009F4CAC0803709F4CEC0EEC0843709F42C
S11301A0DEC038F4823709F4D0C0833709F4D2C0F2
S11301B0E3C0853709F4E3C08F3F09F4D5C0DCC040
S11301C080E00E94F20560919B0170919C018091F6
S11301D09D0190919E010E942911862F0E94C50FB6
S11301E0089580E00E94F20560917F017091800182
S11301F080918101909182010E942911862F0E9491
S1130200C50F089580E00E94F205609193017091FA
S1130210940180919501909196010E942911862F55
S11302200E94C50F089580E00E948C06609197019A
S1130230709198018091990190919A010E942911DD
S1130240862F0E94C50F089580E00E948C0660915D
S11302509F017091A0018091A1019091A2010E943F
S11302602911862F0E94C50F089580E00E948C06F4
S11302706091750170917601809177019091780178
S11302800E942911862F0E94C50F089580E00E94C4
S1130290CC050E94C50F089580E00E94BA050E9413
S11302A0C50F089560918301709184018091850147
S11302B0909186010E942911862F0E94C50F0895EE
S11302C0609188017091890180918A0190918B01DC
S11302D00E942911862F0E94C50F08956091400144
S11302E07091410180914201909143010E94291132
S11302F0862F0E94C50F089560913C0170913D01C5
S113030080913E0190913F010E942911862F0E9405
S1130310C50F0895809187010E94C50F08958091AB
S113032092010E94C50F08958091B1019091B2018C
S11303300E94C50F089580916C010E94C50F089515
S113034080916B010E94C50F089580916A010E94FB
S1130350C50F0895809169010E94C50F0895809189
S113036068010E94C50F089580E70E94C50F089593
S113037081E70E94C50F089585E60E94C50F089580
S11303808CE08093B8001092B9000895CF93DF9366
S113039084EA8093BC00ECEBF0E080818823ECF7E6
S11303A08091B900887F8830E1F08091B900887F1E
S11303B08031C9F068E087E191E00E94CD0F67E0E9
S11303C080E191E00E94CD0FC9EBD0E08881887F65
S11303D00E94C50F809100010E94C50F8881887F0B
S11303E003C080E001C080E0DF91CF910895CF93F6
S11303F0DF93806D8093BB0084E88093BC00ECEBBA
S1130400F0E080818823ECF78091B900887F803404
S1130410E1F08091B900887F8831C9F068E087E114
S113042091E00E94CD0F66E08AE091E00E94CD0F3A
S1130430C9EBD0E08881887F0E94C50F80910001BC
S11304400E94C50F8881887F03C080E001C080E0DE
S1130450DF91CF910895CF93DF938093BB0084E81D
S11304608093BC00ECEBF0E080818823ECF7809172
S1130470B900887F8832B9F068E087E191E00E9492
S1130480CD0F66E08AE091E00E94CD0FC9EBD0E089
S11304908881887F0E94C50F809100010E94C50F4A
S11304A08881887F01C080E0DF91CF910895CF9348
S11304B0DF9384EC8093BC00ECEBF0E08081882334
S11304C0ECF78091B900887F803519F48091BB00E6
S11304D016C068E087E191E00E94CD0F69E081E0F9
S11304E091E00E94CD0FC9EBD0E08881887F0E9403
S11304F0C50F809100010E94C50F8881887FDF911C
S1130500CF910895CF93DF9384E88093BC00ECEB04
S1130510F0E080818823ECF78091B900887F8835EA
S113052019F48091BB0016C068E087E191E00E9455
S1130530CD0F69E081E091E00E94CD0FC9EBD0E0DE
S11305408881887F0E94C50F809100010E94C50F99
S11305508881887FDF91CF91089584E98093BC00DE
S11305600895CF93DF93C82FD62F0E94C60180E051
S11305700E94F701882321F08091B900887F15C07B
S11305808C2F0E942B02882321F08091B900887F50
S11305900CC08D2F0E942B02882321F08091B9007A
S11305A0887F03C094E99093BC00DF91CF910895B4
S11305B0CF93C82F0E94C601882321F08091B900EF
S11305C0887F28C080E00E94F701882321F0809171
S11305D0B900887F1FC08C2F0E942B02882321F032
S11305E08091B900887F16C00E94C601882321F03B
S11305F08091B900887F0EC081E00E94F7018823B2
S113060021F08091B900887F05C00E94820294E99C
S11306109093BC00CF910895CF93C82F0E94C60138
S1130620882329F08091B900887F90E02FC080E072
S11306300E94F701882329F08091B900887F90E017
S113064025C08C2F0E942B02882329F08091B900A9
S1130650887F90E01BC00E94C601882329F0809106
S1130660B900887F90E012C081E00E94F7018823DE
S113067029F08091B900887F90E008C00E94570259
S11306800E94820294E99093BC0090E0CF91089577
S11306908230C1F018F4813031F044C0833011F15C
S11306A0843081F13FC080E090E0A3E0B3E4809324
S11306B0250190932601A0932701B093280110925D
S11306C0450140C080E090E0A3E8B2E480932501B6
S11306D090932601A0932701B093280188E080938A
S11306E0450130C083E393E3A3E0B2E480932501A2
S11306F090932601A0932701B093280180E1809371
S1130700450120C083E393E3A3E8B1E4809325018A
S113071090932601A0932701B093280188E1809348
S1130720450110C060912501709126018091270137
S1130730909128010E942911862F0E94C50F8AE0FA
S11307400E94C50F609125017091260180912701B7
S1130750909128010E942911862F0895823091F0EA
S113076018F4813031F02CC08330B1F08430F1F0D2
S113077027C080E090E49093240180932301109299
S1130780440125C080E090E29093240180932301EA
S113079088E0809344011BC080E090E190932401A1
S11307A08093230180E18093440111C080E098E0AC
S11307B0909324018093230188E18093440107C02E
S11307C0809123010E94C50F8AE00E94C50F809189
S11307D023010895CF93C82F0E94C601811195C0AB
S11307E00E94F701811193C08BE30E942B028111B7
S11307F090C00E94C60181118EC081E00E94F70161
S113080081118BC00E94570290E0982F8827909303
S11308109101809390010E945702209190013091A0
S11308209101282B30939101209390010E9457024B
S113083090E0982F882790937E0180937D010E94F9
S1130840570220917D0130917E01282B30937E0147
S113085020937D010E94570290E0982F882790935F
S11308608F0180938E010E94820220918E0130912B
S11308708F01282B30938F0120938E010E94AD02AB
S1130880C13009F04CC08091900190919101209168
S1130890340130913501821B930B90939101809325
S11308A0900180917D0190917E01209132013091DF
S11308B03301821B930B90937E0180937D012091E1
S11308C08E0130918F018091300190913101821716
S11308D093076CF420918E0130918F013052820F76
S11308E0931F90938F0180938E0180E019C0209113
S11308F08E0130918F01305EA901481B590B509332
S11309008F0140938E0180E00BC08FEF09C08FEF01
S113091007C08FEF05C08FEF03C08FEF01C080E0E9
S1130920CF910895CF93C82F0E94C60181117EC034
S11309300E94F70181117CC083E40E942B02811183
S113094079C00E94C601811177C081E00E94F7013D
S1130950811174C00E94570290E0982F88279093C9
S11309608D0180938C010E94570220918C0130915B
S11309708D01282B30938D0120938C010E94570206
S113098090E0982F882790937C0180937B010E94AC
S1130990570220917B0130917C01282B30937C01FC
S11309A020937B010E94570290E0982F8827909310
S11309B07A01809379010E94820220917901309119
S11309C07A01282B30937A0120937901C13051F5B3
S11309D080918C0190918D0120913A0130913B01DD
S11309E0821B930B90938D0180938C0180917B01EA
S11309F090917C012091380130913901821B930B35
S1130A0090937C0180937B018091790190917A018C
S1130A102091360130913701821B930B90937A0118
S1130A20809379010E94AD0280E009C08FEF07C076
S1130A308FEF05C08FEF03C08FEF01C08FEFCF9111
S1130A40089582E00E94480382E00E94AE0362E0BF
S1130A508AE10E94B102811179C0609145018BE164
S1130A600E94B102811174C0609144018CE10E9422
S1130A70B10281116FC060E083E20E94B102811172
S1130A806BC060E084E20E94B102811167C060E043
S1130A9087E30E94B102811163C060E088E30E9491
S1130AA0B10281115FC060E08AE60E94B102811147
S1130AB05BC061E08BE60E94B102811157C085E7FB
S1130AC00E94D802883609F053C02FEF83EC99E0D6
S1130AD0215080409040E1F700C0000080E00E9477
S1130AE0EA03809190019091910190933501809354
S1130AF0340180917D0190917E0190933301809324
S1130B00320180918E0190918F01909331018093F5
S1130B10300180E00E94920480918C0190918D01BB
S1130B2090933B0180933A0180917B0190917C01E9
S1130B3090933901809338018091790190917A01E1
S1130B40909337018093360188E608958FEF0895D6
S1130B508FEF08958FEF08958FEF08958FEF089525
S1130B608FEF08958FEF08958FEF08958FEF089515
S1130B708EEF0895CF93DF93D82F85E70E94D80294
S1130B80C82FD13029F40E94C50F8AE00E94C50FF6
S1130B908C2FDF91CF910895CF93DF93D82F8BE3E0
S1130BA00E940C03BC0180E090E00E94581120E0F8
S1130BB030E04AEA53E40E94B01028EB3EE142E1FF
S1130BC052E40E9415100E942211C62FD13031F434
S1130BD0862F0E94C50F8AE00E94C50F8C2FDF91DB
S1130BE0CF910895CF92DF92EF92FF920F931F93CC
S1130BF0CF93C82F0091900110919101609123012E
S1130C007091240180E090E00E9458116B017C01F6
S1130C10B801110F880B990B0E945A11A701960174
S1130C200E94B01023E333E344EC52E40E94151213
S1130C3060939B0170939C0180939D0190939E010E
S1130C4060917D0170917E01072E000C880B990B39
S1130C500E945A11A70196010E94B01023E333E3C6
S1130C6044EC52E40E94151260937F01709380015A
S1130C70809381019093820160918E0170918F0124
S1130C80072E000C880B990B0E945A11A70196019C
S1130C900E94B01023E333E344EC52E40E941512A3
S1130CA060939301709394018093950190939601BE
S1130CB0C13051F560919B0170919C0180919D011F
S1130CC090919E010E942911862F0E94C50F609168
S1130CD07F017091800180918101909182010E9435
S1130CE02911862F0E94C50F609193017091940180
S1130CF080919501909196010E942911862F0E945E
S1130D00C50F8AE00E94C50FCF911F910F91FF90EC
S1130D10EF90DF90CF900895CF92DF92EF92FF9201
S1130D20CF93C82F60918C0170918D01C0902501E3
S1130D30D0902601E0902701F0902801072E000CA6
S1130D40880B990B0E945A11A70196010E94B010BA
S1130D5060939701709398018093990190939A01FD
S1130D6060917B0170917C01072E000C880B990B1C
S1130D700E945A11A70196010E94B01060939F012E
S1130D807093A0018093A1019093A20160917901D5
S1130D9070917A01072E000C880B990B0E945A114E
S1130DA0A70196010E94B0106093750170937601BB
S1130DB08093770190937801C13051F56091970148
S1130DC0709198018091990190919A010E94291142
S1130DD0862F0E94C50F60919F017091A0018091A0
S1130DE0A1019091A2010E942911862F0E94C50F92
S1130DF060917501709176018091770190917801ED
S1130E000E942911862F0E94C50F8AE00E94C50FF7
S1130E10CF91FF90EF90DF90CF9008954F925F9223
S1130E206F927F928F929F92AF92BF92CF92DF92F6
S1130E30EF92FF92CF93DF93CDB7DEB72D970FB626
S1130E40F894DEBF0FBECDBF8D8780919B0190913A
S1130E509C01A0919D01B0919E018D839E83AF83DF
S1130E60B887C0907F01D0908001E0908101F0901C
S1130E70820180907F0190908001A0908101B090C8
S1130E80820140909301509094016090950170907C
S1130E9096018091930190919401A0919501B09154
S1130EA0960189839A83AB83BC83A5019401C7010E
S1130EB0B6010E94151269877A878B879C87A501E2
S1130EC09401C701B6010E9415126B017C012981AE
S1130ED03A814B815C81C301B2010E9415129B01CE
S1130EE0AC01C701B6010E9415100E9488129B0133
S1130EF0AC016D817E818F8198850E94B0100E9423
S1130F00811020E030E044E353E40E94151226E50A
S1130F103EE049E450E40E94B0100E942211062EE3
S1130F20000C770B880B990B0E945A116093830174
S1130F3070938401809385019093860180917F0151
S1130F4090918001A0918101B09182018D839E8353
S1130F50AF83B887C0909B01D0909C01E0909D0125
S1130F60F0909E0180909B0190909C01A0909D0127
S1130F70B0909E014090930150909401609095012F
S1130F80709096018091930190919401A0919501A4
S1130F90B091960189839A83AB83BC83A5019401A4
S1130FA0C701B6010E94151269877A878B879C87CF
S1130FB0A5019401C701B6010E9415126B017C01C1
S1130FC029813A814B815C81C301B2010E941512CF
S1130FD09B01AC01C701B6010E9415100E94881242
S1130FE09B01AC016D817E818F8198850E94B01038
S1130FF00E94811020E030E044E353E40E94151283
S113100026E53EE049E450E40E94B0100E9422111B
S1131010062E000C770B880B990B0E945A116093D3
S113102088017093890180938A0190938B019D8537
S11310309130E9F46091830170918401809185017C
S1131040909186010E942911862F0E94C50F6091FC
S113105088017091890180918A0190918B010E948D
S11310602911862F0E94C50F8AE00E94C50F2D9674
S11310700FB6F894DEBF0FBECDBFDF91CF91FF90C6
S1131080EF90DF90CF90BF90AF909F908F907F9024
S11310906F905F904F9008958F929F92AF92BF92FE
S11310A0CF92DF92EF92FF92CF93C82F609171019C
S11310B07091720180917301909174010E94130EDA
S11310C00E9458116B017C01209197013091980185
S11310D04091990150919A01809040019090410172
S11310E0A0904201B09043010E94151220E03AE220
S11310F043E758E40E94B010A50194010E94151022
S113110060934001709341018093420190934301A5
S113111020919F013091A0014091A1015091A20121
S113112080903C0190903D01A0903E01B0903F0121
S1131130C701B6010E94151220E03AE243E758E4E1
S11311400E94B010A50194010E94151060933C0107
S113115070933D0180933E0190933F0180916F0114
S113116090917001909374018093730180916D014B
S113117090916E019093720180937101C13001F5D9
S113118080913C0190913D01A0913E01B0913F01BD
S1131190BC01CD0190580E942911862F0E94C50FD1
S11311A0609140017091410180914201909143010D
S11311B00E942911862F0E94C50F8AE00E94C50F44
S11311C0CF91FF90EF90DF90CF90BF90AF909F9022
S11311D08F9008954F925F926F927F928F929F9219
S11311E0AF92BF92CF92DF92EF92FF92CF93DF93B1
S11311F000D000D01F92CDB7DEB78D83C0901F0101
S1131200D0902001E0902101F090220140908301D0
S1131210509084016090850170908601A701960129
S113122060E070E080E89FE30E94141069837A8391
S11312308B839C8380903C0190903D01A0903E0163
S1131240B0903F01A3019201C701B6010E9415129B
S11312502B013C01A501940169817A818B819C81D8
S11312600E9415129B01AC01C301B2010E9414102B
S11312700E94221160938701209188013091890195
S113128040918A0150918B0140904001509041015E
S11312906090420170904301C701B6010E9415128B
S11312A06B017C01A301920169817A818B819C810C
S11312B00E9415129B01AC01C701B6010E941510D2
S11312C00E942211609392018D81813059F48091A2
S11312D087010E94C50F809192010E94C50F8AE088
S11312E00E94C50F0F900F900F900F900F90DF91F9
S11312F0CF91FF90EF90DF90CF90BF90AF909F90F1
S11313008F907F906F905F904F9008951AB88FE000
S11313108BB98FEF84B90E94FD0E0E94C00180E05A
S113132091EE0E949B0F0E9421050E94C50F0E940E
S1131330850D789411E0C2E3D12FC09368018091A8
S113134068018A3118F0D0935F0102C010925F01E6
S113135080915F01813089F7812F0E94EA03812FF8
S11313600E94920480E00E94F20580E00E948C06B4
S113137080E00E940E0780E00E944C0880E00E94FA
S1131380EA0880916C010E94C50F8AE00E94C50F93
S11313900E945D0C0E94950CD0CF4F925F926F9289
S11313A07F92AF92BF92CF92DF92EF92FF920F9310
S11313B01F93CF93DF938091870120916B0134E6D3
S11313C08302C00111246AE570E00E94E112C62F75
S11313D0C21BC093A7010CE211E0F801B080CB9DC1
S11313E0B02C1124B092AD01E090B101F090B201A3
S11313F066B570E080E090E00E9458112BEB32E972
S113140049E856E30E9415122B013C01B70180E024
S113141090E00E9458119B01AC01C301B2010E94EB
S11314201510209157013091580140915901509164
S11314305A010E9414106B017C0160934B0170935C
S11314404C0180934D0190934E01D0E0F8018181CD
S11314508C9FB0018D9F700D1124072E000C880BFA
S1131460990B0E945A11A70196010E9415122B0193
S11314703C016091A90170E080E090E00E945A1163
S11314809B01AC01C301B2010E9415100E942911F5
S1131490A62E6093A9018091AA01BE01681B71095F
S11314A0072E000C880B990B0E945A11A701960174
S11314B00E94B0106B017C01F801628170E080E051
S11314C090E00E945A119B01AC01C701B6010E9431
S11314D015120E9429116093A6016A0DB60EB092EE
S11314E0A301C091B101D091B20166B570E080E072
S11314F090E00E9458112BEB32E949E856E30E9430
S113150015126B017C01BE0180E090E00E9458112D
S11315109B01AC01C701B6010E94151060935701ED
S1131520709358018093590190935A01DF91CF91A0
S11315301F910F91FF90EF90DF90CF90BF90AF90ED
S11315407F906F905F904F9008954F925F926F924B
S11315507F92AF92BF92CF92DF92EF92FF920F935E
S11315601F93CF93DF938091920120916A0134E617
S11315708302C00111246AE570E00E94E112C62FC3
S1131580C21BC093AE0109E211E0F801B080CB9D0B
S1131590B02C1124B092AD01E090B101F090B201F1
S11315A066B570E080E090E00E9458112BEB32E9C0
S11315B049E856E30E9415122B013C01B70180E073
S11315C090E00E9458119B01AC01C301B2010E943A
S11315D015102091530130915401409155015091BF
S11315E056010E9414106B017C0160934B017093AF
S11315F04C0180934D0190934E01D0E0F80181811C
S11316008C9FB0018D9F700D1124072E000C880B48
S1131610990B0E945A11A70196010E9415122B01E1
S11316203C016091A90170E080E090E00E945A11B1
S11316309B01AC01C301B2010E9415100E94291143
S1131640A62E6093A9018091A801BE01681B7109AF
S1131650072E000C880B990B0E945A11A7019601C2
S11316600E94B0106B017C01F801628170E080E09F
S113167090E00E945A119B01AC01C701B6010E947F
S113168015120E9429116093A6016A0DB60EB0923C
S1131690A401C091B101D091B20166B570E080E0BF
S11316A090E00E9458112BEB32E949E856E30E947E
S11316B015126B017C01BE0180E090E00E9458117C
S11316C09B01AC01C701B6010E9415106093530140
S11316D0709354018093550190935601DF91CF91FB
S11316E01F910F91FF90EF90DF90CF90BF90AF903C
S11316F07F906F905F904F9008954F925F926F929A
S11317007F92AF92BF92CF92DF92EF92FF920F93AC
S11317101F93CF93DF93609175017091760180914F
S1131720770190917801D09169010E94221124E6F9
S11317306202C00111246AE570E00E94E112C62F22
S1131740CD1BC093AB010BE511E0F801B080CB9D3C
S1131750B02C1124B092AD01E090B101F090B2012F
S113176066B570E080E090E00E9458112BEB32E9FE
S113177049E856E30E9415122B013C01B70180E0B1
S113178090E00E9458119B01AC01C301B2010E9478
S1131790151020914F013091500140915101509109
S11317A052010E9414106B017C0160934B017093F1
S11317B04C0180934D0190934E01D0E0F80181815A
S11317C08C9FB0018D9F700D1124072E000C880B87
S11317D0990B0E945A11A70196010E9415122B0120
S11317E03C016091A90170E080E090E00E945A11F0
S11317F09B01AC01C301B2010E9415100E94291182
S1131800A62E6093A9018091AC01BE01681B7109E9
S1131810072E000C880B990B0E945A11A701960100
S11318200E94B0106B017C01F801628170E080E0DD
S113183090E00E945A119B01AC01C701B6010E94BD
S113184015120E9429116093A6016A0DB60EB0927A
S1131850A501C091B101D091B20166B570E080E0FC
S113186090E00E9458112BEB32E949E856E30E94BC
S113187015126B017C01BE0180E090E00E945811BA
S11318809B01AC01C701B6010E94151060934F0182
S1131890709350018093510190935201DF91CF9145
S11318A01F910F91FF90EF90DF90CF90BF90AF907A
S11318B07F906F905F904F90089580916C01863077
S11318C050F10E94CD090E94A50A0E947D0BE3EA13
S11318D0F1E0308180916C0121819281830F890F25
S11318E0821B80934A0180916C01432F420F840F25
S11318F0891B8093490180916C01422F490F840F09
S1131900831B8093480180916C01831B821B891B7C
S113191080934701089585E080934A0180934901AB
S1131920809348018093470108950F931F9340913A
S1131930480145361CF4453024F402C044E601C095
S113194045E060914A0165361CF4653024F402C018
S113195064E601C065E08091490185361CF4853058
S113196024F402C084E601C085E001E010E024EF25
S113197031E00E947D0E8091470185361CF485304C
S113198024F402C084E601C085E041E050E064EF45
S113199071E00E94440F1F910F9108958FB7F8943E
S11319A0E69AEE9A8FBF0895CF93CFB7F8948CB38D
S11319B08CBBEAE6F0E08081806380830E94CE0CD9
S11319C0CFBFCF910895CF93CFB7F894E69AEAE6C4
S11319D0F0E080818F7E80830E94CE0CCFBFCF91B8
S11319E008951F920F920FB60F9211248F929F9217
S11319F0AF92BF92CF92DF92EF92FF922F933F93D9
S1131A004F935F936F937F938F939F93AF93BF9302
S1131A10EF93FF9380915E01811122C082EF91E0E8
S1131A20A0E0B0E08093600190936101A093620113
S1131A30B093630180916F0190917001909367015D
S1131A408093660180916D0190916E019093650180
S1131A508093640181E080935E010E94E30C32C0B4
S1131A6060916401709165018091660190916701B4
S1131A700E94130EC0906001D0906101E090620159
S1131A80F0906301695F7109810991090E945811FD
S1131A904B015C01C701B6010E9458119B01AC01C6
S1131AA0C501B4010E94B01020E030E048EC52E4DB
S1131AB00E9415120E94291160936C0110925E011C
S1131AC00E94D40CFF91EF91BF91AF919F918F91A0
S1131AD07F916F915F914F913F912F91FF90EF9084
S1131AE0DF90CF90BF90AF909F908F900F900FBEDC
S1131AF00F901F9018951F920F920FB60F921124FA
S1131B000F900FBE0F901F9018950E94D40C08954B
S1131B1080349105D1F030F4009769F08830910554
S1131B2081F01FC0811521E0920799F0811524E00E
S1131B30920799F016C085B5816085BD81E090E07B
S1131B40089525B5226025BD089525B5236025BDDA
S1131B50089525B5246025BD089525B5266025BDC5
S1131B60089585B5816085BD81E090E00895CF93A7
S1131B70C82FCB0122E024BD0E94880DC7BDCF91A0
S1131B800895EEE6F0E080818260808308951F92DC
S1131B900F920FB60F9211242F938F939F938091DE
S1131BA0B1019091B20101969093B2018093B10179
S1131BB080916F019091700187509F4F90937001B5
S1131BC080936F0180916F019091700186309F4FD7
S1131BD048F080916D0190916E01019690936E0191
S1131BE080936D018091B1019091B201019649F405
S1131BF08091AF019091B00101969093B0018093D0
S1131C00AF0188B1803811F418B805C088B18111CA
S1131C1002C080E888B99F918F912F910F900FBED9
S1131C200F901F901895CF93DF93EC0120916D01D5
S1131C3030916E01E6B540916F0150917001261B01
S1131C40370BAFEFBFEF0E941713DC01CB018C1BE6
S1131C509D0BA109B1094E0F511DBC01CD01640FAB
S1131C60751F811D911DDF91CF91089584B1806E00
S1131C7084B9E0E8F0E08081886A808380E1809321
S1131C808100089580349105F1F030F4009769F0F3
S1131C908830910591F029C0811521E09207C9F09F
S1131CA0811524E09207D9F020C0E1E8F0E08081BA
S1131CB08160808381E090E00895E1E8F0E0208194
S1131CC0226020830895E1E8F0E0208123602083EE
S1131CD00895E1E8F0E02081246020830895E1E89C
S1131CE0F0E02081266020830895E1E8F0E080811F
S1131CF08160808381E090E008958F929F92AF92FB
S1131D00BF92DF92EF92FF920F931F93CF93DF93D3
S1131D10D82EE62EF42EE901C8010E94420ECC0F03
S1131D20DD1F9C01C29FC001C39F900DD29F900DE7
S1131D3011249C0140E050E060E074E284EF90E004
S1131D400E94F51249015A01369527953695279533
S1131D50ABE7B4E10E94171396958795D89EB0011E
S1131D60D99E700D1124E89EA001E99E500D112406
S1131D70F89E9001F99E300D11248FB7F89490923B
S1131D808700809286007093890060938800509346
S1131D908B0040938A0030938D0020938C008FBF7A
S1131DA0DF91CF911F910F91FF90EF90DF90BF9043
S1131DB0AF909F908F9008951F920F920FB60F923D
S1131DC011240F900FBE0F901F9018951F920F9221
S1131DD00FB60F9211240F900FBE0F901F901895FD
S1131DE080E487B9E0E9F0E0808180688083E1E9FC
S1131DF0F0E080818061808308950E94360E0E9405
S1131E00F00E60E470E089EF0E94B70D0E94C10DEE
S1131E10089580349105F1F030F4009769F088302A
S1131E20910591F029C0811521E09207C9F081152F
S1131E3024E09207D9F020C0E1E9F0E080818160DC
S1131E40808381E090E00895E1E9F0E02081226060
S1131E5020830895E1E9F0E0208123602083089540
S1131E60E1E9F0E02081246020830895E1E9F0E0D5
S1131E702081266020830895E1E9F0E0808181607B
S1131E80808381E090E00895CF92DF92EF92FF92F9
S1131E901F93CF93DF93182FEB01CA010E94090F00
S1131EA0CC0FDD1F9C01C29FC001C39F900DD29F28
S1131EB0900D11249C0140E050E060E074E284EF56
S1131EC090E00E94F51269017A01369527953695BE
S1131ED02795ABE7B4E10E94171396958795189F51
S1131EE09001199F300D11248FB7F894D092970068
S1131EF0C092960030939900209398008FBFDF9191
S1131F00CF911F91FF90EF90DF90CF9008951F9293
S1131F100F920FB60F9211240F900FBE0F901F90C7
S1131F2018951F920F920FB60F9211240F900FBEA7
S1131F300F901F901895A0E0B0E0880F991FAA1F7A
S1131F40BB1F880F991FAA1FBB1F9C01AD01220F45
S1131F50331F441F551F220F331F441F551F60E0BA
S1131F6074E284EF90E00E94F51221501092CD00AB
S1131F702093CC00E9ECF0E080E8808386E0809355
S1131F80CA008081886180830895E8ECF0E0908144
S1131F9095FFFDCF8093CE0008950F931F93CF93A9
S1131FA0DF93662351F08C01EC01060F111D89911A
S1131FB00E94C50FC017D107D1F7DF91CF911F91B0
S1131FC00F9108951F920F920FB60F9211242F9321
S1131FD03F934F935F936F937F938F939F93AF93AD
S1131FE0BF93EF93FF938091CE008093460180913D
S1131FF046010E94C50F8091460190E00E948C002A
S11320008AE00E94C50FFF91EF91BF91AF919F911C
S11320108F917F916F915F914F913F912F910F908D
S11320200FBE0F901F9018955058BB27AA270E94E7
S11320302C100C94D3110E94C51138F00E94CC11BD
S113204020F039F49F3F19F426F40C949B110EF4FC
S1132050E095E7FB0C949511E92F0E94E41158F3E5
S1132060BA17620773078407950720F079F4A6F579
S11320700C9406120EF4E0950B2EBA2FA02D0B0132
S1132080B90190010C01CA01A0011124FF27591BB9
S113209099F0593F50F4503E68F11A16F040A22FBF
S11320A0232F342F4427585FF3CF46953795279530
S11320B0A795F0405395C9F77EF41F16BA0B620B2F
S11320C0730B840BBAF09150A1F0FF0FBB1F661F76
S11320D0771F881FC2F70EC0BA0F621F731F841FB9
S11320E048F4879577956795B795F7959E3F08F0DF
S11320F0B0CF9395880F08F09927EE0F97958795A1
S11321000895DF93DD27B92FBF7740E85FE3161604
S1132110170648075B0718F4D92F0E940D129F93E6
S11321208F937F936F930E94C812ECEAF0E00E94B1
S11321309E110E94D3112F913F914F915F910E9464
S11321402812DD2351F09058A2EA2AED3FE049EC31
S11321505FE3D0785D270E942C10DF910C94D3119B
S11321600E94C4100C94D3110E94CC1158F00E9408
S1132170C51140F029F45F3F29F00C9495115111D9
S11321800C9407120C949B110E94E41168F3992398
S1132190B1F3552391F3951B550BBB27AA2762175F
S11321A07307840738F09F5F5F4F220F331F441F6C
S11321B0AA1FA9F335D00E2E3AF0E0E832D09150A0
S11321C05040E695001CCAF72BD0FE2F29D0660F8D
S11321D0771F881FBB1F261737074807AB07B0E8D0
S11321E009F0BB0B802DBF01FF2793585F4F3AF0D6
S11321F09E3F510578F00C9495110C9407125F3FA3
S1132200E4F3983ED4F3869577956795B795F7955B
S11322109F5FC9F7880F911D9695879597F9089543
S1132220E1E0660F771F881FBB1F621773078407DF
S1132230BA0720F0621B730B840BBA0BEE1F88F7EE
S1132240E09508950E9429116894B1110C94071225
S113225008950E94EC1188F09F5798F0B92F9927A0
S1132260B751B0F0E1F0660F771F881F991F1AF07D
S1132270BA95C9F714C0B13091F00E940612B1E0CA
S113228008950C940612672F782F8827B85F39F0C9
S1132290B93FCCF3869577956795B395D9F73EF416
S11322A090958095709561957F4F8F4F9F4F0895BE
S11322B0E89409C097FB3EF49095809570956195DC
S11322C07F4F8F4F9F4F9923A9F0F92F96E9BB2792
S11322D09395F695879577956795B795F111F8CF0E
S11322E0FAF4BB0F11F460FF1BC06F5F7F4F8F4F79
S11322F09F4F16C0882311F096E911C0772321F06F
S11323009EE8872F762F05C0662371F096E8862F06
S113231070E060E02AF09A95660F771F881FDAF75D
S1132320880F9695879597F9089597F99F6780E8A0
S113233070E060E008959FEF80EC0895DF93CF9301
S11323401F930F93FF92EF92DF927B018C016894AD
S113235006C0DA2EEF010E942812FE01E894A5912E
S11323602591359145915591A6F3EF010E942C10CA
S1132370FE019701A801DA9469F7DF90EF90FF90CE
S11323800F911F91CF91DF91089500240A9416169E
S1132390170618060906089500240A94121613064F
S11323A0140605060895092E0394000C11F48823DD
S11323B052F0BB0F40F4BF2B11F460FF04C06F5FF9
S11323C07F4F8F4F9F4F089557FD9058440F551FCF
S11323D059F05F3F71F04795880F97FB991F61F0A3
S11323E09F3F79F087950895121613061406551F1A
S11323F0F2CF4695F1DF08C0161617061806991F86
S1132400F1CF86957105610508940895E894BB277A
S113241066277727CB0197F908959B01AC0160E00B
S113242070E080E89FE30C94B0100E9428120C9492
S1132430D3110E94C51138F00E94CC1120F09523CD
S113244011F00C9495110C949B1111240C94071207
S11324500E94E41170F3959FC1F3950F50E0551F4E
S1132460629FF001729FBB27F00DB11D639FAA27E5
S1132470F00DB11DAA1F649F6627B00DA11D661F34
S1132480829F2227B00DA11D621F739FB00DA11D55
S1132490621F839FA00D611D221F749F3327A00D0F
S11324A0611D231F849F600D211D822F762F6A2FAB
S11324B011249F5750409AF0F1F088234AF0EE0F10
S11324C0FF1FBB1F661F771F881F91505040A9F73D
S11324D09E3F510580F00C9495110C9407125F3FB8
S11324E0E4F3983ED4F3869577956795B795F79579
S11324F0E7959F5FC1F7FE2B880F911D96958795F1
S113250097F9089519F416F40C949B110C94CC12B9
S11325100E94EC11B8F39923C9F3B6F39F57550BF6
S113252087FF0E94DA120024A0E640EA9001805856
S11325305695979528F4805C660F771F881F20F0C6
S113254026173707480730F4621B730B840B2029C6
S113255031294A2BA69517940794202531254A271B
S113256058F7660F771F881F20F02617370748078C
S113257030F4620B730B840B200D311D411DA095AB
S113258081F7B901842F9158880F969587950895FE
S11325909B01AC010C9415129F3F31F0915020F433
S11325A0879577956795B795880F911D969587952B
S11325B097F9089591505040660F771F881FD2F7FE
S11325C0089597FB072E16F4009407D077FD09D0E1
S11325D00E94261307FC05D03EF4909581959F4FE9
S11325E00895709561957F4F0895A1E21A2EAA1B54
S11325F0BB1BFD010DC0AA1FBB1FEE1FFF1FA217AF
S1132600B307E407F50720F0A21BB30BE40BF50BAB
S1132610661F771F881F991F1A9469F76095709534
S1132620809590959B01AC01BD01CF010895A29FB7
S1132630B001B39FC001A39F700D811D1124911D92
S1132640B29F700D811D1124911D0895AA1BBB1BFF
S113265051E107C0AA1FBB1FA617B70710F0A61B9E
S1132660B70B881F991F5A95A9F780959095BC01BF
S10B2670CD010895F894FFCF99
S11326780A726563656976653A2073656E643A2003
S113268873746172743A204572726F72203A20CD65
S1132698CCCC3D004000000343040A05040A0500AD
S9030110EB
