S01400005061706572696E6F5F332E312E73726563E1
S11300000C9456000C9473000C9473000C947300BD
S11300100C9473000C9473000C9473000C949A0663
S11300200C9473000C9479070C9473000C94730073
S11300300C9473000C9473000C9473000C94730070
S11300400C944A090C9473000C9473000C94730080
S11300500C9436090C945E090C9473000C94730090
S11300600C9473000C942C0A0C9473000C9473007D
S11300700C9473000C9473000C9473000C94540946
S11300800C9473000C9473000C9473000C9440094A
S11300900C9473000C9473000C9473000C94730010
S11300A00C9473000C9473000C94730011241FBE01
S11300B0CFEFDAE0DEBFCDBF11E0A0E0B1E0E0E8D1
S11300C0F9E102C005900D92A032B107D9F721E001
S11300D0A0E2B1E001C01D92A239B207E1F70E948B
S11300E024060C94BE0C0C9400008B3609F4DFC07B
S11300F040F5853609F491C090F4823609F45AC06B
S113010038F4882309F41DC1813609F442C01DC1A5
S1130110833609F460C0843609F46EC016C188368B
S113012009F4A3C038F4863609F488C0873609F484
S113013096C00BC1893609F49EC08A3609F4A9C059
S113014004C1813709F4E5C090F48E3609F4D0C0B7
S113015038F48C3609F4B9C08D3609F4C4C0F5C03E
S11301608F3609F4CAC0803709F4CEC0EEC0843794
S113017009F4DEC038F4823709F4D0C0833709F4B7
S1130180D2C0E3C0853709F4E3C08F3F09F4D5C07A
S1130190DCC080E00E94220560918201709183019D
S11301A080918401909185010E94440B862F0E94C6
S11301B00F0A089580E00E94220560915A0170910F
S11301C05B0180915C0190915D010E94440B862F3C
S11301D00E940F0A089580E00E9422056091760132
S11301E07091770180917801909179010E94440B7C
S11301F0862F0E940F0A089580E00E94AC0560914A
S11302007E0170917F0180918001909181010E9413
S1130210440B862F0E940F0A089580E00E94AC05CB
S11302206091860170918701809188019091890184
S11302300E94440B862F0E940F0A089580E00E94BA
S1130240AC05609148017091490180914A019091F7
S11302504B010E94440B862F0E940F0A089580E0F0
S11302600E94FC040E940F0A089580E00E94EA04A0
S11302700E940F0A089560915E0170915F01809160
S11302806001909161010E94440B862F0E940F0A25
S1130290089560916301709164018091650190916A
S11302A066010E94440B862F0E940F0A08956091F4
S11302B030017091310180913201909133010E949B
S11302C0440B862F0E940F0A089560912C017091AF
S11302D02D0180912E0190912F010E94440B862FB5
S11302E00E940F0A0895809162010E940F0A0895E6
S11302F0809175010E940F0A089580919001909158
S113030091010E940F0A0895809143010E940F0AEF
S11303100895809142010E940F0A0895809141013D
S11303200E940F0A0895809140010E940F0A0895C7
S113033080913F010E940F0A089580E70E940F0AEE
S1130340089581E70E940F0A089585E60E940F0A26
S113035008958CE08093B8001092B9000895CF936B
S1130360DF9384EA8093BC00ECEBF0E08081882387
S1130370ECF78091B900887F8830E1F08091B90072
S1130380887F8031C9F068E087E191E00E94170A14
S113039067E080E191E00E94170AC9EBD0E0888110
S11303A0887F0E940F0A809100010E940F0A8881B1
S11303B0887F03C080E001C080E0DF91CF91089581
S11303C0CF93DF93806D8093BB0084E88093BC005F
S11303D0ECEBF0E080818823ECF78091B900887F12
S11303E08034E1F08091B900887F8831C9F068E0F9
S11303F087E191E00E94170A66E08AE091E00E949A
S1130400170AC9EBD0E08881887F0E940F0A809187
S113041000010E940F0A8881887F03C080E001C028
S113042080E0DF91CF910895CF93DF938093BB0059
S113043084E88093BC00ECEBF0E080818823ECF747
S11304408091B900887F8832B9F068E087E191E053
S11304500E94170A66E08AE091E00E94170AC9EB3D
S1130460D0E08881887F0E940F0A809100010E9459
S11304700F0A8881887F01C080E0DF91CF910895C1
S1130480CF93DF9384EC8093BC00ECEBF0E08081AD
S11304908823ECF78091B900887F803519F4809126
S11304A0BB0016C068E087E191E00E94170A69E08A
S11304B081E091E00E94170AC9EBD0E08881887F2F
S11304C00E940F0A809100010E940F0A8881887F90
S11304D0DF91CF910895CF93DF9384E88093BC009C
S11304E0ECEBF0E080818823ECF78091B900887F01
S11304F0883519F48091BB0016C068E087E191E06B
S11305000E94170A69E081E091E00E94170AC9EB92
S1130510D0E08881887F0E940F0A809100010E94A8
S11305200F0A8881887FDF91CF91089584E98093B1
S1130530BC000895CF93DF93C82FD62F0E94AF013C
S113054080E00E94E001882321F08091B900887F37
S113055015C08C2F0E941402882321F08091B900C9
S1130560887F0CC08D2F0E941402882321F0809173
S1130570B900887F03C094E99093BC00DF91CF91C8
S11305800895CF93C82F0E94AF01882321F0809152
S1130590B900887F28C080E00E94E001882321F010
S11305A08091B900887F1FC08C2F0E941402882379
S11305B021F08091B900887F16C00E94AF01882382
S11305C021F08091B900887F0EC081E00E94E00193
S11305D0882321F08091B900887F05C00E946B02B6
S11305E094E99093BC00CF910895CF93C82F0E94B3
S11305F0AF01882329F08091B900887F90E02FC053
S113060080E00E94E001882329F08091B900887F6E
S113061090E025C08C2F0E941402882329F0809139
S1130620B900887F90E01BC00E94AF01882329F0A5
S11306308091B900887F90E012C081E00E94E001BF
S1130640882329F08091B900887F90E008C00E9437
S113065040020E946B0294E99093BC0090E0CF9119
S11306600895CF93C82F0E94AF01811195C00E94B5
S1130670E001811193C08BE30E941402811190C0A8
S11306800E94AF0181118EC081E00E94E0018111BE
S11306908BC00E94400290E0982F882790937401A9
S11306A0809373010E944002209173013091740180
S11306B0282B30937401209373010E94400290E030
S11306C0982F882790935901809358010E944002E3
S11306D02091580130915901282B309359012093CE
S11306E058010E94400290E0982F8827909372014D
S11306F0809371010E946B0220917101309172010B
S1130700282B30937201209371010E949602C1300C
S113071009F04CC0809173019091740120912401DF
S113072030912501821B930B909374018093730184
S11307308091580190915901209122013091230117
S1130740821B930B9093590180935801209171015E
S113075030917201809120019091210182179307B9
S11307606CF420917101309172013052820F931F09
S1130770909372018093710180E019C020917101FE
S113078030917201305EA901481B590B50937201DC
S11307904093710180E00BC08FEF09C08FEF07C059
S11307A08FEF05C08FEF03C08FEF01C080E0CF91C2
S11307B008950E94AF0181117CC00E94E001811163
S11307C07AC083E40E941402811177C00E94AF01B1
S11307D0811175C081E00E94E001811172C00E9404
S11307E0400290E0982F88279093680180936701D6
S11307F00E9440022091670130916801282B3093B8
S11308006801209367010E94400290E0982F882796
S113081090935701809356010E9440022091560103
S113082030915701282B30935701209356010E9491
S1130830400290E0982F88279093510180935001B3
S11308400E946B022091500130915101282B30936A
S1130850510120935001809167019091680120918A
S11308602A0130912B01821B930B90936801809392
S11308706701809156019091570120912801309190
S11308802901821B930B9093570180935601809109
S11308905001909151012091260130912701821B32
S11308A0930B90935101809350010E94960280E033
S11308B008958FEF08958FEF08958FEF08958FEFC8
S11308C008958FEF089562E08AE10E949A028111EF
S11308D06DC068E08BE10E949A02811169C068E0F2
S11308E08CE10E949A02811165C060E083E20E945B
S11308F09A02811161C060E084E20E949A0281112F
S11309005DC060E087E30E949A02811159C060E0F3
S113091088E30E949A02811155C060E08AE60E9431
S11309209A02811151C061E08BE60E949A02811102
S11309304DC085E70E94C102883609F049C080E0B5
S11309400E94310380917301909174019093250169
S1130950809324018091580190915901909323012F
S113096080932201809171019091720190932101F1
S1130970809320010E94D9038091670190916801BE
S113098090932B0180932A018091560190915701F5
S113099090932901809328018091500190915101F5
S11309A0909327018093260188E608958FEF089598
S11309B08FEF08958FEF08958FEF08958FEF0895C7
S11309C08FEF08958FEF08958FEF08958FEF0895B7
S11309D08EEF0895CF93DF93D82F85E70E94C1024D
S11309E0C82FD13029F40E940F0A8AE00E940F0A0E
S11309F08C2FDF91CF910895CF93DF93D82F8BE382
S1130A000E94F502BC0180E090E00E94730B20E09C
S1130A1030E04AEA53E40E94CB0A28EB3EE142E18B
S1130A2052E40E945F0A0E943D0BC62FD13031F47C
S1130A30862F0E940F0A8AE00E940F0A8C2FDF91F2
S1130A40CF910895CF93C82F609173017091740171
S1130A50072E000C880B990B0E94750B20E030E0E8
S1130A6040E059E30E94010C23E333E344EC52E4F5
S1130A700E94010C6093820170938301809384012E
S1130A80909385016091580170915901072E000CD3
S1130A90880B990B0E94750B20E030E040E059E38D
S1130AA00E94010C23E333E344EC52E40E94010C62
S1130AB060935A0170935B0180935C0190935D0194
S1130AC06091710170917201072E000C880B990BD3
S1130AD00E94750B20E030E040E059E30E94010CD5
S1130AE023E333E344EC52E40E94010C6093760167
S1130AF0709377018093780190937901C13051F517
S1130B0060918201709183018091840190918501AB
S1130B100E94440B862F0E940F0A60915A01709123
S1130B205B0180915C0190915D010E94440B862FD2
S1130B300E940F0A6091760170917701809178018B
S1130B40909179010E94440B862F0E940F0A8AE03B
S1130B500E940F0ACF910895CF93C82F6091670127
S1130B6070916801072E000C880B990B0E94750B7D
S1130B7020E030E042E852E40E94CB0A60937E0118
S1130B8070937F018093800190938101609156015D
S1130B9070915701072E000C880B990B0E94750B5E
S1130BA020E030E042E852E40E94CB0A60938601E0
S1130BB0709387018093880190938901609150011B
S1130BC070915101072E000C880B990B0E94750B34
S1130BD020E030E042E852E40E94CB0A60934801EE
S1130BE07093490180934A0190934B01C13051F5B0
S1130BF060917E0170917F018091800190918101CB
S1130C000E94440B862F0E940F0A60918601709106
S1130C10870180918801909189010E94440B862F5D
S1130C200E940F0A609148017091490180914A0124
S1130C3090914B010E94440B862F0E940F0A8AE078
S1130C400E940F0ACF9108951AB88FE08BB98FEFE5
S1130C5084B90E94D9090E94A90180E091EE0E9402
S1130C60E5090E9463040E940F0A0E94D608789442
S1130C70C0919001D0919101E0908E01F0908F018C
S1130C808091460190914701609144017091450122
S1130C90EFE1FEE43197F1F700C00000EFE1FEE47C
S1130CA03197F1F700C000000E94A2098C01B7013E
S1130CB0CE010E94B609EC019801ADECBCEC0E9497
S1130CC0AF0C929582958F7089279F7089270E9417
S1130CD00F0A8C2F0E940F0A8AE00E940F0AD0CFBD
S1130CE08FB7F894E69AEE9A8FBF0895CF93CFB753
S1130CF0F8948CB38CBBEAE6F0E080818063808357
S1130D000E947006CFBFCF910895CF93CFB7F894C8
S1130D10E69AEAE6F0E080818F7E80830E94700686
S1130D20CFBFCF91089591E09093680080936B00BA
S1130D309BBB08951F920F920FB60F9211244F92EE
S1130D405F926F927F928F929F92AF92BF92CF9257
S1130D50DF92EF92FF922F933F934F935F936F93A2
S1130D607F938F939F93AF93BF93CF93EF93FF930F
S1130D708091350181115CC0E0909001F090910167
S1130D8066B580903B0190903C01A0903D01B090ED
S1130D903E0170E080E090E00E94750B2DEB37E39C
S1130DA046E856E30E94010C2B013C01B70180E0A8
S1130DB090E00E94730B9B01AC01C301B2010E943D
S1130DC05F0AA50194010E945E0A60933701709343
S1130DD038018093390190933A01E0909001F090AA
S1130DE0910166B570E080E090E00E94750B2DEBF8
S1130DF037E346E856E30E94010C4B015C01B7015E
S1130E0080E090E00E94730B9B01AC01C501B4012A
S1130E100E945F0A60933B0170933C0180933D0103
S1130E2090933E010E94850681E08093350143C082
S1130E30609190017091910180903B0190903C01F0
S1130E40A0903D01B0903E01C6B5C0903701D0904E
S1130E503801E0903901F0903A0180E090E00E947E
S1130E60730BA50194010E945E0A4B015C016C2F77
S1130E7070E080E090E00E94750B2DEB37E346E8CC
S1130E8056E30E94010C9B01AC01C501B4010E9410
S1130E905F0A20E030E048EC52E40E94010CA70114
S1130EA096010E94CB0A0E94440B609343010E9466
S1130EB0760610923501FF91EF91CF91BF91AF91DA
S1130EC09F918F917F916F915F914F913F912F915E
S1130ED0FF90EF90DF90CF90BF90AF909F908F9056
S1130EE07F906F905F904F900F900FBE0F901F9068
S1130EF018951F920F920FB60F9211248F929F9202
S1130F00AF92BF92CF92DF92EF92FF922F933F93D3
S1130F104F935F936F937F938F939F93AF93BF93FD
S1130F20CF93EF93FF9393B1809136019093360161
S1130F30209135018927843009F450C018F4823097
S1130F4041F01AC1883009F48EC0803109F4D0C050
S1130F5013C180913501813009F00EC16091900177
S1130F607091910180903B0190903C01A0903D01D3
S1130F70B0903E01C6B5C0903701D0903801E090E2
S1130F803901F0903A0180E090E00E94730BA501D2
S1130F9094010E945E0A4B015C016C2F70E080E0BA
S1130FA090E00E94750B2DEB37E346E856E30E9470
S1130FB0010C9B01AC01C501B4010E945F0A20E051
S1130FC030E048EC52E40E94010CA70196010E9413
S1130FD0CB0A0E94440B60934001CEC0809135013E
S1130FE0813009F0C9C060919001709191018090A5
S1130FF03B0190903C01A0903D01B0903E01C6B5EC
S1131000C0903701D0903801E0903901F0903A0156
S113101080E090E00E94730BA50194010E945E0A97
S11310204B015C016C2F70E080E090E00E94750B36
S11310302DEB37E346E856E30E94010C9B01AC011B
S1131040C501B4010E945F0A20E030E048EC52E49C
S11310500E94010CA70196010E94CB0A0E94440B36
S11310606093410189C080913501813009F084C0C9
S1131070609190017091910180903B0190903C01AE
S1131080A0903D01B0903E01C6B5C0903701D0900C
S11310903801E0903901F0903A0180E090E00E943C
S11310A0730BA50194010E945E0A4B015C016C2F35
S11310B070E080E090E00E94750B2DEB37E346E88A
S11310C056E30E94010C9B01AC01C501B4010E94CE
S11310D05F0A20E030E048EC52E40E94010CA701D2
S11310E096010E94CB0A0E94440B6093420144C0C3
S11310F080913501813009F03FC060919001709179
S1131100910180903B0190903C01A0903D01B090F2
S11311103E01C6B5C0903701D0903801E090390146
S1131120F0903A0180E090E00E94730BA5019401D5
S11311300E945E0A4B015C016C2F70E080E090E03D
S11311400E94750B2DEB37E346E856E30E94010C31
S11311509B01AC01C501B4010E945F0A20E030E0AC
S113116048EC52E40E94010CA70196010E94CB0AAC
S11311700E94440B60933F01FF91EF91CF91BF9187
S1131180AF919F918F917F916F915F914F913F911B
S11311902F91FF90EF90DF90CF90BF90AF909F90F2
S11311A08F900F900FBE0F901F9018950E94760697
S11311B00E94700680E80E949306089580E487B92F
S11311C0E0E9F0E0808180688083E1E9F0E08081FB
S11311D080618083089584B1806E84B9E0E8F0E092
S11311E08081886A808380E18093810008958034BF
S11311F09105D1F030F4009769F08830910581F0C1
S11312001FC0811521E0920799F0811524E092070F
S113121099F016C085B5816085BD81E090E00895A0
S113122025B5226025BD089525B5236025BD089503
S113123025B5246025BD089525B5266025BD0895EE
S113124085B5816085BD81E090E00895CF93C82F76
S1131250CB0122E024BD0E94F708C7BDCF910895B9
S1131260EEE6F0E080818260808308951F920F9201
S11312700FB60F9211240F900FBE0F901F90189568
S11312801F920F920FB60F9211240F900FBE0F9062
S11312901F9018951F920F920FB60F9211240F9062
S11312A00FBE0F901F9018951F920F920FB60F92BA
S11312B011240F900FBE0F901F9018951F920F923C
S11312C00FB60F9211242F938F939F9380919001C7
S11312D09091910101969093910180939001809156
S11312E046019091470188509F4F90934701809306
S11312F04601809146019091470187309F4F48F005
S11313008091440190914501019690934501809309
S113131044018091900190919101019659F480913A
S11313208E0190918F01019690938F0180938E018D
S113133080E185B99F918F912F910F900FBE0F90EF
S11313401F9018954091440150914501E6B52091B4
S11313504601309147012E0F311DF901E81BF90BAD
S1131360CF01461B570B841B950B0895FC0120915C
S11313708E0130918F014091900150919101261B73
S1131380370BAFEFBFEF0E94AF0CDC01CB018E1B1C
S11313909F0BA109B109BC01CD01640F751F811D0B
S11313A0911D28EE33E040E050E00E94900CC9010A
S11313B008950E94EB080E94DE0860E470E088EF64
S11313C00E9426090E9430090895A0E0B0E0880F29
S11313D0991FAA1FBB1F880F991FAA1FBB1F9C011F
S11313E0AD01220F331F441F551F220F331F441F0B
S11313F0551F60E074E284EF90E00E946E0C21506F
S11314001092CD002093CC00E9ECF0E080E88083DA
S113141086E08093CA008081886180830895E8EC27
S1131420F0E0908195FFFDCF8093CE0008950F9357
S11314301F93CF93DF93662351F08C01EC01060FC9
S1131440111D89910E940F0AC017D107D1F7DF91AE
S1131450CF911F910F9108951F920F920FB60F9283
S113146011242F933F934F935F936F937F938F93A5
S11314709F93AF93BF93EF93FF938091CE0080939C
S11314803401809134010E940F0A8091340190E06C
S11314900E9475008AE00E940F0AFF91EF91BF91AC
S11314A0AF919F918F917F916F915F914F913F91F8
S11314B02F910F900FBE0F901F9018955058BB2777
S11314C0AA270E94760A0C94C70B0E94B90B38F025
S11314D00E94C00B20F039F49F3F19F426F40C94B9
S11314E0B60B0EF4E095E7FB0C94B00BE92F0E94C9
S11314F0D80B58F3BA17620773078407950720F0CF
S113150079F4A6F50C94FA0B0EF4E0950B2EBA2F91
S1131510A02D0B01B90190010C01CA01A0011124F5
S1131520FF27591B99F0593F50F4503E68F11A16A1
S1131530F040A22F232F342F4427585FF3CF469532
S113154037952795A795F0405395C9F77EF41F1654
S1131550BA0B620B730B840BBAF09150A1F0FF0F1E
S1131560BB1F661F771F881FC2F70EC0BA0F621F0A
S1131570731F841F48F4879577956795B795F795FA
S11315809E3F08F0B0CF9395880F08F09927EE0F8F
S11315909795879508950E94DF0A0C94C70B0E94C3
S11315A0C00B58F00E94B90B40F029F45F3F29F0BA
S11315B00C94B00B51110C94FB0B0C94B60B0E94C1
S11315C0D80B68F39923B1F3552391F3951B550B6D
S11315D0BB27AA2762177307840738F09F5F5F4F02
S11315E0220F331F441FAA1FA9F335D00E2E3AF041
S11315F0E0E832D091505040E695001CCAF72BD059
S1131600FE2F29D0660F771F881FBB1F26173707A9
S11316104807AB07B0E809F0BB0B802DBF01FF27DB
S113162093585F4F3AF09E3F510578F00C94B00BFD
S11316300C94FB0B5F3FE4F3983ED4F386957795C7
S11316406795B795F7959F5FC9F7880F911D969594
S1131650879597F90895E1E0660F771F881FBB1FF0
S1131660621773078407BA0720F0621B730B840B9D
S1131670BA0BEE1F88F7E09508950E94440B689416
S1131680B1110C94FB0B08950E94E00B88F09F5756
S113169098F0B92F9927B751B0F0E1F0660F771F92
S11316A0881F991F1AF0BA95C9F714C0B13091F088
S11316B00E94FA0BB1E008950C94FA0B672F782F6F
S11316C08827B85F39F0B93FCCF38695779567954D
S11316D0B395D9F73EF490958095709561957F4FB9
S11316E08F4F9F4F0895E89409C097FB3EF490955F
S11316F08095709561957F4F8F4F9F4F9923A9F0E7
S1131700F92F96E9BB279395F69587957795679575
S1131710B795F111F8CFFAF4BB0F11F460FF1BC0B9
S11317206F5F7F4F8F4F9F4F16C0882311F096E94C
S113173011C0772321F09EE8872F762F05C06623FA
S113174071F096E8862F70E060E02AF09A95660FB3
S1131750771F881FDAF7880F9695879597F908956C
S113176097F99F6780E870E060E008959FEF80EC50
S1131770089500240A9416161706180609060895F3
S113178000240A9412161306140605060895092E59
S11317900394000C11F4882352F0BB0F40F4BF2BC8
S11317A011F460FF04C06F5F7F4F8F4F9F4F089508
S11317B057FD9058440F551F59F05F3F71F04795FE
S11317C0880F97FB991F61F09F3F79F087950895E3
S11317D0121613061406551FF2CF4695F1DF08C002
S11317E0161617061806991FF1CF8695710561051F
S11317F008940895E894BB2766277727CB0197F9C7
S113180008950E94140C0C94C70B0E94B90B38F075
S11318100E94C00B20F0952311F00C94B00B0C9493
S1131820B60B11240C94FB0B0E94D80B70F3959FFC
S1131830C1F3950F50E0551F629FF001729FBB27C3
S1131840F00DB11D639FAA27F00DB11DAA1F649F5F
S11318506627B00DA11D661F829F2227B00DA11D12
S1131860621F739FB00DA11D621F839FA00D611D98
S1131870221F749F3327A00D611D231F849F600DB9
S1131880211D822F762F6A2F11249F5750409AF0E2
S1131890F1F088234AF0EE0FFF1FBB1F661F771F6E
S11318A0881F91505040A9F79E3F510580F00C9439
S11318B0B00B0C94FB0B5F3FE4F3983ED4F3869596
S11318C077956795B795F795E7959F5FC1F7FE2BD9
S11318D0880F911D9695879597F90895A1E21A2E80
S11318E0AA1BBB1BFD010DC0AA1FBB1FEE1FFF1FC0
S11318F0A217B307E407F50720F0A21BB30BE40B10
S1131900F50B661F771F881F991F1A9469F7609556
S11319107095809590959B01AC01BD01CF01089510
S1131920052E97FB1EF400940E94A70C57FD07D0C8
S11319300E946E0C07FC03D04EF40C94A70C509537
S11319404095309521953F4F4F4F5F4F08959095A7
S11319508095709561957F4F8F4F9F4F0895A29FFB
S1131960B001B39FC001A39F700D811D1124911D6F
S1131970B29F700D811D1124911D0895F894FFCF1D
S11319800A726563656976653A2073656E643A2008
S113199073746172743A204572726F72203A200037
S9030110EB
