S01400005061706572696E6F5F332E312E73726563E1
S11300000C946D000C948A000C948A000C948A0061
S11300100C948A000C948A000C948A000C943F0C73
S11300200C948A000C94230D0C948A000C948A007E
S11300300C948A000C948A000C948A000C948A0014
S11300400C9432100C948A000C948A000C948A004C
S11300500C941E100C9446100C948A000C948A0084
S11300600C948A000C94D1100C948A000C948A008D
S11300700C948A000C948A000C948A000C943C1012
S11300800C948A000C948A000C948A000C94281016
S11300900C948A000C948A000C948A000C948A00B4
S11300A00C948A000C948A000C948A00084AD73B6A
S11300B03BCE016E84BCBFFDC12F3D6C74319ABD33
S11300C056833DDA3D00C77F11BED9E4BB4C3E9157
S11300D06BAAAABE000000803F0011241FBECFEF10
S11300E0DAE0DEBFCDBF11E0A0E0B1E0E6E5F8E282
S11300F002C005900D92A632B107D9F721E0A6E21D
S1130100B1E001C01D92AC3BB207E1F70E94F408D4
S11301100C9429140C9400008B3609F4DFC040F5CC
S1130120853609F491C090F4823609F45AC038F443
S1130130882309F424C1813609F442C024C18336DA
S113014009F460C0843609F46EC01DC1883609F410
S1130150A3C038F4863609F488C0873609F496C0FB
S113016012C1893609F49EC08A3609F4A9C00BC1AC
S1130170813709F4ECC090F48E3609F4D0C038F419
S11301808C3609F4B9C08D3609F4C4C0FCC08F366E
S113019009F4CAC0803709F4D5C0F5C0843709F41E
S11301A0E5C038F4823709F4D7C0833709F4D9C0DD
S11301B0EAC0853709F4EAC08F3F09F4DCC0E3C024
S11301C080E00E9440056091A4017091A501809196
S11301D0A6019091A7010E941812862F0E94B410C4
S11301E0089580E00E94400560917C0170917D013A
S11301F080917E0190917F010E941812862F0E94A7
S1130200B410089580E00E944005609198017091B7
S1130210990180919A0190919B010E941812862F56
S11302200E94B410089580E00E94CA056091A00164
S11302307091A1018091A2019091A3010E941812D2
S1130240862F0E94B410089580E00E94CA05609130
S1130250A8017091A9018091AA019091AB010E941B
S11302601812862F0E94B410089580E00E94CA05D7
S113027060916A0170916B0180916C0190916D01A4
S11302800E941812862F0E94B410089580E00E94E4
S11302901A050E94B410089580E00E9408050E9487
S11302A0B410089560918001709181018091820160
S11302B0909183010E941812862F0E94B410089511
S11302C060918501709186018091870190918801E8
S11302D00E941812862F0E94B4100895609136016E
S11302E07091370180913801909139010E94181260
S11302F0862F0E94B41008956091320170913301E9
S113030080913401909135010E941812862F0E9429
S1130310B4100895809184010E94B41008958091CE
S113032097010E94B4100895609162017091630175
S113033080916401909165010E941812862F0E9499
S1130340B4100895809161010E94B41008958091C1
S113035060010E94B410089580915F010E94B4105E
S1130360089580915E010E94B410089580915D010A
S11303700E94B410089580E70E94B410089581E7A4
S11303800E94B410089585E60E94B41008958CE08C
S11303908093B8001092B9000895CF93DF9384EA54
S11303A08093BC00ECEBF0E080818823ECF7809133
S11303B0B900887F8830E1F08091B900887F80316E
S11303C0C9F068E087E191E00E94BC1067E080E139
S11303D091E00E94BC10C9EBD0E08881887F0E9424
S11303E0B410809100010E94B4108881887F03C0FA
S11303F080E001C080E0DF91CF910895CF93DF9337
S1130400806D8093BB0084E88093BC00ECEBF0E04B
S113041080818823ECF78091B900887F8034E1F0F3
S11304208091B900887F8831C9F068E087E191E064
S11304300E94BC1066E08AE091E00E94BC10C9EB07
S1130440D0E08881887F0E94B410809100010E94CE
S1130450B4108881887F03C080E001C080E0DF9110
S1130460CF910895CF93DF938093BB0084E880936A
S1130470BC00ECEBF0E080818823ECF78091B900BC
S1130480887F8832B9F068E087E191E00E94BC106F
S113049066E08AE091E00E94BC10C9EBD0E088815C
S11304A0887F0E94B410809100010E94B41088815A
S11304B0887F01C080E0DF91CF910895CF93DF93CF
S11304C084EC8093BC00ECEBF0E080818823ECF7B3
S11304D08091B900887F803519F48091BB0016C0E3
S11304E068E087E191E00E94BC1069E081E091E05E
S11304F00E94BC10C9EBD0E08881887F0E94B410B0
S1130500809100010E94B4108881887FDF91CF918F
S11305100895CF93DF9384E88093BC00ECEBF0E084
S113052080818823ECF78091B900887F883519F49D
S11305308091BB0016C068E087E191E00E94BC1086
S113054069E081E091E00E94BC10C9EBD0E08881B1
S1130550887F0E94B410809100010E94B4108881A9
S1130560887FDF91CF91089584E98093BC0008953A
S1130570CF93DF93C82FD62F0E94CD0180E00E9435
S1130580FE01882321F08091B900887F15C08C2F4B
S11305900E943202882321F08091B900887F0CC028
S11305A08D2F0E943202882321F08091B900887F28
S11305B003C094E99093BC00DF91CF910895CF9349
S11305C0C82F0E94CD01882321F08091B900887F33
S11305D028C080E00E94FE01882321F08091B900A8
S11305E0887F1FC08C2F0E943202882321F08091C3
S11305F0B900887F16C00E94CD01882321F0809124
S1130600B900887F0EC081E00E94FE01882321F09A
S11306108091B900887F05C00E94890294E9909373
S1130620BC00CF910895CF93C82F0E94CD01882399
S113063029F08091B900887F90E02FC080E00E946B
S1130640FE01882329F08091B900887F90E025C0BD
S11306508C2F0E943202882329F08091B900887F70
S113066090E01BC00E94CD01882329F08091B9003D
S1130670887F90E012C081E00E94FE01882329F067
S11306808091B900887F90E008C00E945E020E94B9
S1130690890294E99093BC0090E0CF910895CF93A0
S11306A0C82F0E94CD01811195C00E94FE018111C5
S11306B093C08BE30E943202811190C00E94CD014D
S11306C081118EC081E00E94FE0181118BC00E94C5
S11306D05E0290E0982F882790939601809395016D
S11306E00E945E022091950130919601282B30934F
S11306F09601209395010E945E0290E0982F88272E
S113070090937B0180937A010E945E0220917A018A
S113071030917B01282B30937B0120937A010E9436
S11307205E0290E0982F8827909394018093930120
S11307300E9489022091930130919401282B3093D7
S11307409401209393010E94B402C13009F04CC07B
S1130750809195019091960120912A0130912B016D
S1130760821B930B909396018093950180917A015B
S113077090917B012091280130912901821B930BD8
S113078090937B0180937A0120919301309194019D
S11307908091260190912701821793076CF4209190
S11307A09301309194013052820F931F90939401DE
S11307B08093930180E019C02091930130919401BA
S11307C0305EA901481B590B509394014093930147
S11307D080E00BC08FEF09C08FEF07C08FEF05C01B
S11307E08FEF03C08FEF01C080E0CF9108950E9486
S11307F0CD0181117CC00E94FE0181117AC083E485
S11308000E943202811177C00E94CD01811175C00E
S113081081E00E94FE01811172C00E945E0290E09C
S1130820982F882790938A01809389010E945E0201
S11308302091890130918A01282B30938A012093D9
S113084089010E945E0290E0982F88279093790195
S1130850809378010E945E022091780130917901A1
S1130860282B30937901209378010E945E0290E056
S1130870982F882790937301809372010E948902B4
S11308802091720130917301282B309373012093CE
S113089072018091890190918A01209130013091F7
S11308A03101821B930B90938A018093890180917B
S11308B078019091790120912E0130912F01821BB2
S11308C0930B9093790180937801809172019091B8
S11308D0730120912C0130912D01821B930B909375
S11308E07301809372010E94B40280E008958FEF37
S11308F008958FEF08958FEF08958FEF08958FEF88
S1130900089562E08AE10E94B80281116DC068E036
S11309108BE10E94B802811169C068E08CE10E94F9
S1130920B802811165C060E083E20E94B8028111BF
S113093061C060E084E20E94B80281115DC060E0A1
S113094087E30E94B802811159C060E088E30E94E5
S1130950B802811155C060E08AE60E94B802811194
S113096051C061E08BE60E94B80281114DC085E759
S11309700E94DF02883609F049C080E00E944F03DC
S1130980809195019091960190932B0180932A0177
S113099080917A0190917B019093290180932801A1
S11309A08091930190919401909327018093260163
S11309B00E94F7038091890190918A0190933101FB
S11309C080933001809178019091790190932F0167
S11309D080932E01809172019091730190932D0167
S11309E080932C0188E608958FEF08958FEF089582
S11309F08FEF08958FEF08958FEF08958FEF089587
S1130A008FEF08958FEF08958FEF08958EEF089577
S1130A10CF93DF93D82F85E70E94DF02C82FD13010
S1130A2029F40E94B4108AE00E94B4108C2FDF9144
S1130A30CF910895CF93DF93D82F8BE30E941303B4
S1130A40BC0180E090E00E94471220E030E04AEAD6
S1130A5053E40E949F1128EB3EE142E152E40E94DC
S1130A6004110E941112C62FD13031F4862F0E9436
S1130A70B4108AE00E94B4108C2FDF91CF910895B6
S1130A80CF93C82F6091950170919601072E000CA9
S1130A90880B990B0E94491220E030E040E059E3B2
S1130AA00E94041323E333E344EC52E40E9404134E
S1130AB06093A4017093A5018093A6019093A7016C
S1130AC060917A0170917B01072E000C880B990BC1
S1130AD00E94491220E030E040E059E30E940413F0
S1130AE023E333E344EC52E40E94041360937C0157
S1130AF070937D0180937E0190937F0160919301B7
S1130B0070919401072E000C880B990B0E944912D6
S1130B1020E030E040E059E30E94041323E333E390
S1130B2044EC52E40E940413609398017093990179
S1130B3080939A0190939B01C13051F56091A40177
S1130B407091A5018091A6019091A7010E941812AD
S1130B50862F0E94B41060917C0170917D01809178
S1130B607E0190917F010E941812862F0E94B4107A
S1130B70609198017091990180919A0190919B01E3
S1130B800E941812862F0E94B4108AE00E94B410AA
S1130B90CF910895CF93C82F6091890170918A01F4
S1130BA0072E000C880B990B0E94491220E030E0BC
S1130BB042E852E40E949F116093A0017093A10146
S1130BC08093A2019093A3016091780170917901BF
S1130BD0072E000C880B990B0E94491220E030E08C
S1130BE042E852E40E949F116093A8017093A90106
S1130BF08093AA019093AB0160917201709173018B
S1130C00072E000C880B990B0E94491220E030E05B
S1130C1042E852E40E949F1160936A0170936B0151
S1130C2080936C0190936D01C13051F56091A001E6
S1130C307091A1018091A2019091A3010E941812C8
S1130C40862F0E94B4106091A8017091A90180912F
S1130C50AA019091AB010E941812862F0E94B41031
S1130C6060916A0170916B0180916C0190916D01AA
S1130C700E941812862F0E94B4108AE00E94B410B9
S1130C80CF9108954F925F926F927F928F929F922D
S1130C90AF92BF92CF92DF92EF92FF92CF93DF9306
S1130CA0CDB7DEB72D970FB6F894DEBF0FBECDBF1C
S1130CB08D878091A4019091A501A091A601B09186
S1130CC0A7018D839E83AF83B887C0907C01D090A9
S1130CD07D01E0907E01F0907F0180907C019090F6
S1130CE07D01A0907E01B0907F01409098015090CA
S1130CF0990160909A0170909B0180919801909164
S1130D009901A0919A01B0919B0189839A83AB8345
S1130D10BC83A5019401C701B6010E94041369872D
S1130D207A878B879C87A5019401C701B6010E942D
S1130D3004136B017C0129813A814B815C81C301DD
S1130D40B2010E9404139B01AC01C701B6010E94C9
S1130D5004110E9477139B01AC016D817E818F8108
S1130D6098850E949F110E94701120E030E044E3B6
S1130D7053E40E94041326E53EE049E450E40E9453
S1130D809F110E941112062E000C770B880B990BF1
S1130D900E944912609380017093810180938201C3
S1130DA09093830180917C0190917D01A0917E01BB
S1130DB0B0917F018D839E83AF83B887C090A401D7
S1130DC0D090A501E090A601F090A7018090A40125
S1130DD09090A501A090A601B090A7014090980121
S1130DE05090990160909A0170909B0180919801B4
S1130DF090919901A0919A01B0919B0189839A8362
S1130E00AB83BC83A5019401C701B6010E940413FE
S1130E1069877A878B879C87A5019401C701B601EE
S1130E200E9404136B017C0129813A814B815C810E
S1130E30C301B2010E9404139B01AC01C701B601B6
S1130E400E9404110E9477139B01AC016D817E8185
S1130E508F8198850E949F110E94701120E030E0DC
S1130E6044E353E40E94041326E53EE049E450E4DD
S1130E700E949F110E941112062E000C770B880B02
S1130E80990B0E94491260938501709386018093A7
S1130E908701909388019D859130E9F460918001E8
S1130EA07091810180918201909183010E941812B6
S1130EB0862F0E94B4106091850170918601809103
S1130EC08701909188010E941812862F0E94B41005
S1130ED08AE00E94B4102D960FB6F894DEBF0FBEC0
S1130EE0CDBFDF91CF91FF90EF90DF90CF90BF9077
S1130EF0AF909F908F907F906F905F904F900895E8
S1130F008F929F92AF92BF92CF92DF92EF92FF9215
S1130F10CF93C82F6091890170918A01072E000C2C
S1130F20880B990B0E94491220E030E042E852E419
S1130F300E949F116093A0017093A1018093A2016C
S1130F409093A3016091780170917901072E000CB0
S1130F50880B990B0E94491220E030E042E852E4E9
S1130F600E949F116093A8017093A9018093AA0124
S1130F709093AB016091720170917301072E000C84
S1130F80880B990B0E94491220E030E042E852E4B9
S1130F900E949F1160936A0170936B0180936C01AE
S1130FA090936D0166B58090620190906301A0906A
S1130FB06401B0906501C0906601D0906701E09033
S1130FC06801F090690170E080E090E00E944912AD
S1130FD02BEB32E949E856E30E940413A50194017E
S1130FE00E940411A70196010E9403116B017C0168
S1130FF02091A0013091A1014091A2015091A3013F
S11310008090360190903701A0903801B09039015A
S11310100E940413A50194010E94041160933601F7
S11310207093370180933801909339012091A8017E
S11310303091A9014091AA015091AB0180903201F5
S113104090903301A0903401B0903501C701B601EE
S11310500E940413A50194010E94041160933201BB
S113106070933301809334019093350166B5C09039
S11310706201D0906301E0906401F090650170E03A
S113108080E090E00E9449122BEB32E949E856E3F4
S11310900E940413A70196010E9404116093660143
S11310A0709367018093680190936901C13001F5E1
S11310B06091360170913701809138019091390126
S11310C00E941812862F0E94B410809132019091D0
S11310D03301A0913401B0913501BC01CD01905888
S11310E00E941812862F0E94B4108AE00E94B41045
S11310F0CF91FF90EF90DF90CF90BF90AF909F90F3
S11311008F9008958F929F92AF92BF92CF92DF9269
S1131110EF92FF92CF93C82F60918001709181016B
S113112080918201909183018090320190903301EB
S1131130A0903401B09035012DEC3CEC4CE45DE31F
S11311400E9404136B017C0123E333E343E75FE371
S1131150C501B4010E9404139B01AC01C701B6018F
S11311600E9403110E941112609384016091850111
S11311707091860180918701909188018090360159
S113118090903701A0903801B09039012DEC3CECDF
S11311904CE45DE30E9404136B017C0123E333E31D
S11311A043E75FE3C501B4010E9404139B01AC0152
S11311B0C701B6010E9404110E94111260939701A5
S11311C0C13041F4809184010E94B4108091970150
S11311D00E94B410CF91FF90EF90DF90CF90BF901A
S11311E0AF909F908F9008951AB88FE08BB96E9846
S11311F00E947E100E94C70180E091EE0E948A1036
S11312000E9481040E94B4100E94A60E7894D1E03A
S1131210CD2F80915D018A3118F0C093540102C032
S11312201092540180915401813099F78D2F0E94BE
S11312304F030E94F70380E00E94400580E00E9473
S1131240CA0580E00E94420680E00E94800780E098
S11312500E9482080E94A40B0E94DC0BDACF4F92FA
S11312605F926F927F92AF92BF92CF92DF92EF9292
S1131270FF920F931F93CF93DF938091840120916A
S1131280600134E68302C00111246AE570E00E9423
S1131290D013C62FC21BC093B40102E211E0F801BF
S11312A08081C89FA02C1124A092BA0166B5C09079
S11312B06201D0906301E0906401F090650170E0F8
S11312C080E090E00E9449122BEB32E949E856E3B2
S11312D00E940413A70196010E94041120914B015E
S11312E030914C0140914D0150914E010E940311E7
S11312F06B017C0160933F01709340018093410135
S113130090934201D0E0F80181818C9FB0018D9FC0
S1131310700D1124072E000C880B990B0E944912A2
S1131320A70196010E9404132B013C016091B601B0
S113133070E080E090E00E9449129B01AC01C3017F
S1131340B2010E9404110E941812B62E6093B601D5
S11313508091B701BE01681B7109072E000C880B30
S1131360990B0E944912A70196010E949F116B01DB
S11313707C01F801628170E080E090E00E944912F3
S11313809B01AC01C701B6010E9404130E9418120C
S11313906093B3018A2D8B0D861B8093B00166B5D3
S11313A0C0906201D0906301E0906401F090650107
S11313B070E080E090E00E9449122BEB32E949E8AA
S11313C056E30E940413A70196010E94041160933E
S11313D04B0170934C0180934D0190934E01DF912A
S11313E0CF911F910F91FF90EF90DF90CF90BF901E
S11313F0AF907F906F905F904F9008954F925F925F
S11314006F927F92AF92BF92CF92DF92EF92FF9250
S11314100F931F93CF93DF938091970120915F01E6
S113142034E68302C00111246AE570E00E94D013FF
S1131430C62FC21BC093BB010FE111E0F8018081EC
S1131440C89FA02C1124A092BA0166B5C090620175
S1131450D0906301E0906401F090650170E080E059
S113146090E00E9449122BEB32E949E856E30E94CE
S11314700413A70196010E940411209147013091A1
S113148048014091490150914A010E9403116B01A6
S11314907C0160933F0170934001809341019093DC
S11314A04201D0E0F80181818C9FB0018D9F700DC5
S11314B01124072E000C880B990B0E944912A701D6
S11314C096010E9404132B013C016091B60170E067
S11314D080E090E00E9449129B01AC01C301B2017B
S11314E00E9404110E941812B62E6093B6018091D6
S11314F0B501BE01681B7109072E000C880B990BFE
S11315000E944912A70196010E949F116B017C0160
S1131510F801628170E080E090E00E9449129B0132
S1131520AC01C701B6010E9404130E941812609313
S1131530B3018A2D8B0D861B8093B10166B5C090D3
S11315406201D0906301E0906401F090650170E065
S113155080E090E00E9449122BEB32E949E856E31F
S11315600E940413A70196010E940411609347018D
S1131570709348018093490190934A01DF91CF9180
S11315801F910F91FF90EF90DF90CF90BF90AF909D
S11315907F906F905F904F9008954F925F926F92FB
S11315A07F92AF92BF92CF92DF92EF92FF920F930E
S11315B01F93CF93DF9360916A0170916B018091C7
S11315C06C0190916D01D0915E010E94111224E68C
S11315D06202C00111246AE570E00E94D013C62F94
S11315E0CD1BC093B8010FE411E0F8018081C89FBE
S11315F0A02C1124A092BA0166B5C0906201D090CB
S11316006301E0906401F090650170E080E090E097
S11316100E9449122BEB32E949E856E30E94041375
S1131620A70196010E9404112091430130914401C5
S113163040914501509146010E9403116B017C01C8
S113164060933F0170934001809341019093420164
S1131650D0E0F80181818C9FB0018D9F700D112421
S1131660072E000C880B990B0E944912A7019601C2
S11316700E9404132B013C016091B60170E080E0EC
S113168090E00E9449129B01AC01C301B2010E9487
S113169004110E941812B62E6093B6018091B9010C
S11316A0BE01681B7109072E000C880B990B0E9460
S11316B04912A70196010E949F116B017C01F80158
S11316C0628170E080E090E00E9449129B01AC01CD
S11316D0C701B6010E9404130E9418126093B3015B
S11316E08A2D8B0D861B8093B20166B5C090620172
S11316F0D0906301E0906401F090650170E080E0B7
S113170090E00E9449122BEB32E949E856E30E942B
S11317100413A70196010E9404116093430170937E
S113172044018093450190934601DF91CF911F912D
S11317300F91FF90EF90DF90CF90BF90AF907F908C
S11317406F905F904F90089580916101863050F1C1
S11317500E942F090E94FE090E94CD0AE0EBF1E0ED
S113176030818091610121819281830F890F821BD5
S113177080933E0180916101432F420F840F891BA6
S113178080933D0180916101422F490F840F831B97
S113179080933C0180916101831B821B891B809390
S11317A03B01089585E080933E0180933D01809341
S11317B03C0180933B0108950F931F9340913C019A
S11317C045361CF4453024F402C044E601C045E02B
S11317D060913E0165361CF4653024F402C064E671
S11317E001C065E080913D0185361CF4853024F408
S11317F002C084E601C085E001E010E024EF31E09E
S11318000E94020F80913B0185361CF4853024F43C
S113181002C084E601C085E041E050E064EF71E07D
S11318200E949C0F1F910F9108958FB7F894E69A28
S1131830EE9A8FBF0895CF93CFB7F8948CB38CBB37
S1131840EAE6F0E08081806380830E94150CCFBFBC
S1131850CF910895CF93CFB7F894E69AEAE6F0E0F3
S113186080818F7E80830E94150CCFBFCF91089515
S113187091E09093680080936B009BBB08951F9246
S11318800F920FB60F9211244F925F926F927F9234
S11318908F929F92AF92BF92CF92DF92EF92FF927C
S11318A02F933F934F935F936F937F938F939F9364
S11318B0AF93BF93EF93FF93CF93DF9300D000D008
S11318C0CDB7DEB780915201811152C066B58090C8
S11318D0620190906301A0906401B0906501C09092
S11318E05901D0905A01E0905B01F0905C0170E0E6
S11318F080E090E00E9449122DEB37E346E856E37E
S11319000E940413A50194010E940411A7019601E9
S11319100E940311609355017093560180935701FF
S11319209093580166B5C0906201D0906301E09035
S11319306401F090650170E080E090E00E9449123B
S11319402DEB37E346E856E30E940413A701960102
S11319500E9404116093590170935A0180935B01B2
S113196090935C010E942A0C81E08093520148C04C
S11319708090620190906301A0906401B090650131
S11319804090590150905A0160905B0170905C0145
S113199066B5C0905501D0905601E0905701F09083
S11319A0580170E080E090E00E9449122DEB37E38B
S11319B046E856E30E94041369837A838B839C83ED
S11319C0A3019201C501B4010E9403119B01AC0162
S11319D069817A818B819C810E94041120E030E02E
S11319E048EC52E40E940413A70196010E949F113F
S11319F00E941812609361010E941B0C1092520104
S1131A000F900F900F900F90DF91CF91FF91EF9176
S1131A10BF91AF919F918F917F916F915F914F9102
S1131A203F912F91FF90EF90DF90CF90BF90AF90B8
S1131A309F908F907F906F905F904F900F900FBE0C
S1131A400F901F9018951F920F920FB60F921124AA
S1131A504F925F926F927F928F929F92AF92BF92BA
S1131A60CF92DF92EF92FF922F933F934F935F9326
S1131A706F937F938F939F93AF93BF93EF93FF9352
S1131A80CF93DF9300D000D0CDB7DEB793B1809170
S1131A90530190935301209152018927843009F412
S1131AA055C018F4823041F02EC1883009F498C032
S1131AB0803109F4DFC027C180915201813009F0DF
S1131AC022C18090620190906301A0906401B09063
S1131AD065014090590150905A0160905B017090EB
S1131AE05C0166B5C0905501D0905601E090570155
S1131AF0F090580170E080E090E00E9449122DEBD4
S1131B0037E346E856E30E94041369837A838B83A0
S1131B109C83A3019201C501B4010E9403119B019E
S1131B20AC0169817A818B819C810E94041120E03F
S1131B3030E048EC52E40E940413A70196010E948D
S1131B409F110E94181260935E01DDC080915201C2
S1131B50813009F0D8C08090620190906301A09018
S1131B606401B09065014090590150905A01609011
S1131B705B0170905C0166B5C0905501D090560130
S1131B80E0905701F090580170E080E090E00E94EE
S1131B9049122DEB37E346E856E30E9404136983A8
S1131BA07A838B839C83A3019201C501B4010E94B3
S1131BB003119B01AC0169817A818B819C810E9414
S1131BC0041120E030E048EC52E40E940413A70121
S1131BD096010E949F110E94181260935F0193C0A6
S1131BE080915201813009F08EC080906201909002
S1131BF06301A0906401B090650140905901509038
S1131C005A0160905B0170905C0166B5C09055010B
S1131C10D0905601E0905701F090580170E080E0B8
S1131C2090E00E9449122DEB37E346E856E30E9408
S1131C30041369837A838B839C83A3019201C50176
S1131C40B4010E9403119B01AC0169817A818B81EB
S1131C509C810E94041120E030E048EC52E40E9490
S1131C600413A70196010E949F110E941812609309
S1131C70600149C080915201813009F044C08090D4
S1131C80620190906301A0906401B090650140905E
S1131C90590150905A0160905B0170905C0166B5E7
S1131CA0C0905501D0905601E0905701F090580132
S1131CB070E080E090E00E9449122DEB37E346E8A3
S1131CC056E30E94041369837A838B839C83A30164
S1131CD09201C501B4010E9403119B01AC01698109
S1131CE07A818B819C810E94041120E030E048ECD1
S1131CF052E40E940413A70196010E949F110E94BE
S1131D00181260935D010F900F900F900F90DF9168
S1131D10CF91FF91EF91BF91AF919F918F917F915F
S1131D206F915F914F913F912F91FF90EF90DF90D2
S1131D30CF90BF90AF909F908F907F906F905F9067
S1131D404F900F900FBE0F901F9018950E941B0C80
S1131D500E94150C80E80E94380C089580E487B92D
S1131D60E0E9F0E0808180688083E1E9F0E080814F
S1131D7080618083089584B1806E84B9E0E8F0E0E6
S1131D808081886A808380E1809381000895803413
S1131D909105F1F030F4009769F08830910591F0E5
S1131DA029C0811521E09207C9F0811524E092072A
S1131DB0D9F020C0E1E8F0E080818160808381E097
S1131DC090E00895E1E8F0E0208122602083089506
S1131DD0E1E8F0E02081236020830895E1E8F0E069
S1131DE02081246020830895E1E8F0E020812660CA
S1131DF020830895E1E8F0E080818160808381E0C0
S1131E0090E008958F929F92AF92BF92DF92EF92EB
S1131E10FF920F931F93CF93DF93D82EE62EF42EC9
S1131E20E901C8010E94C70ECC0FDD1F9C01C29FAF
S1131E30C001C39F900DD29F900D11249C0140E0DE
S1131E4050E060E074E284EF90E00E94E413490102
S1131E505A013695279536952795ABE7B4E10E944C
S1131E60061496958795D89EB001D99E700D1124BD
S1131E70E89EA001E99E500D1124F89E9001F99E60
S1131E80300D11248FB7F8949092870080928600C9
S1131E90709389006093880050938B0040938A006C
S1131EA030938D0020938C008FBFDF91CF911F91D1
S1131EB00F91FF90EF90DF90BF90AF909F908F9025
S1131EC0089580349105F1F030F4009769F088307A
S1131ED0910591F029C0811521E09207C9F081157F
S1131EE024E09207D9F020C0E1E9F0E0808181602C
S1131EF0808381E090E00895E1E9F0E020812260B0
S1131F0020830895E1E9F0E020812360208308958F
S1131F10E1E9F0E02081246020830895E1E9F0E024
S1131F202081266020830895E1E9F0E080818160CA
S1131F30808381E090E00895CF92DF92EF92FF9248
S1131F401F93CF93DF93182FEB01CA010E94610FF7
S1131F50CC0FDD1F9C01C29FC001C39F900DD29F77
S1131F60900D11249C0140E050E060E074E284EFA5
S1131F7090E00E94E41369017A013695279536951D
S1131F802795ABE7B4E10E94061496958795189FB0
S1131F909001199F300D11248FB7F894D0929700B7
S1131FA0C092960030939900209398008FBFDF91E0
S1131FB0CF911F91FF90EF90DF90CF9008958034E0
S1131FC09105D1F030F4009769F08830910581F0E3
S1131FD01FC0811521E0920799F0811524E0920732
S1131FE099F016C085B5816085BD81E090E00895C3
S1131FF025B5226025BD089525B5236025BD089526
S113200025B5246025BD089525B5266025BD089510
S113201085B5816085BD81E090E00895CF93C82F98
S1132020CB0122E024BD0E94DF0FC7BDCF910895EC
S1132030EEE6F0E080818260808308951F920F9223
S11320400FB60F9211240F900FBE0F901F9018958A
S11320501F920F920FB60F9211240F900FBE0F9084
S11320601F9018951F920F920FB60F9211240F9084
S11320700FBE0F901F9018951F920F920FB60F92DC
S113208011240F900FBE0F901F9018951F920F925E
S11320900FB60F9211242F933F934F935F936F9337
S11320A07F938F939F93AF93BF93EF93FF9360912D
S11320B062017091630180916401909165012FE642
S11320C032E143E85AE30E94041160936201709381
S11320D063018093640190936501FF91EF91BF9137
S11320E0AF919F918F917F916F915F914F913F91AC
S11320F02F910F900FBE0F901F9018950E94BB0E4A
S11321000E94AE0E60E470E089EF0E940E100E94FF
S113211018100895A0E0B0E0880F991FAA1FBB1FF4
S1132120880F991FAA1FBB1F9C01AD01220F331FEB
S1132130441F551F220F331F441F551F60E074E2D4
S113214084EF90E00E94E41321501092CD0020937C
S1132150CC00E9ECF0E080E8808386E08093CA005C
S11321608081886180830895E8ECF0E0908195FF98
S1132170FDCF8093CE0008950F931F93CF93DF93E9
S1132180662351F08C01EC01060F111D89910E9408
S1132190B410C017D107D1F7DF91CF911F910F91E0
S11321A008951F920F920FB60F9211242F933F930D
S11321B04F935F936F937F938F939F93AF93BF934B
S11321C0EF93FF938091CE0080933A0180913A017E
S11321D00E94B41080913A0190E00E948C008AE041
S11321E00E94B410FF91EF91BF91AF919F918F9195
S11321F07F916F915F914F913F912F910F900FBEFF
S11322000F901F9018955058BB27AA270E941B11A6
S11322100C94C2120E94B41238F00E94BB1220F037
S113222039F49F3F19F426F40C948A120EF4E095C5
S1132230E7FB0C948412E92F0E94D31258F3BA17C7
S1132240620773078407950720F079F4A6F50C94C8
S1132250F5120EF4E0950B2EBA2FA02D0B01B90147
S113226090010C01CA01A0011124FF27591B99F008
S1132270593F50F4503E68F11A16F040A22F232F14
S1132280342F4427585FF3CF469537952795A79564
S1132290F0405395C9F77EF41F16BA0B620B730B0B
S11322A0840BBAF09150A1F0FF0FBB1F661F771F7C
S11322B0881FC2F70EC0BA0F621F731F841F48F431
S11322C0879577956795B795F7959E3F08F0B0CFBA
S11322D09395880F08F09927EE0F979587950895A1
S11322E0DF93DD27B92FBF7740E85FE316161706A3
S11322F048075B0718F4D92F0E94FC129F938F9311
S11323007F936F930E94B713ECEAF0E00E948D1262
S11323100E94C2122F913F914F915F910E94171317
S1132320DD2351F09058A2EA2AED3FE049EC5FE347
S1132330D0785D270E941B11DF910C94C2120E9479
S1132340B3110C94C2120E94BB1258F00E94B41232
S113235040F029F45F3F29F00C94841251110C943D
S1132360F6120C948A120E94D31268F39923B1F3E3
S1132370552391F3951B550BBB27AA2762177307A7
S1132380840738F09F5F5F4F220F331F441FAA1F3B
S1132390A9F335D00E2E3AF0E0E832D091505040F7
S11323A0E695001CCAF72BD0FE2F29D0660F771FA5
S11323B0881FBB1F261737074807AB07B0E809F08B
S11323C0BB0B802DBF01FF2793585F4F3AF09E3F10
S11323D0510578F00C9484120C94F6125F3FE4F3E8
S11323E0983ED4F3869577956795B795F7959F5F53
S11323F0C9F7880F911D9695879597F90895E1E09F
S1132400660F771F881FBB1F621773078407BA07FD
S113241020F0621B730B840BBA0BEE1F88F7E09558
S113242008950E9418126894B1110C94F61208953C
S11324300E94DB1288F09F5798F0B92F9927B75163
S1132440B0F0E1F0660F771F881F991F1AF0BA9554
S1132450C9F714C0B13091F00E94F512B1E00895AB
S11324600C94F512672F782F8827B85F39F0B93F9D
S1132470CCF3869577956795B395D9F73EF4909507
S11324808095709561957F4F8F4F9F4F0895E89485
S113249009C097FB3EF490958095709561957F4FA8
S11324A08F4F9F4F9923A9F0F92F96E9BB27939556
S11324B0F695879577956795B795F111F8CFFAF466
S11324C0BB0F11F460FF1BC06F5F7F4F8F4F9F4F97
S11324D016C0882311F096E911C0772321F09EE8F5
S11324E0872F762F05C0662371F096E8862F70E05B
S11324F060E02AF09A95660F771F881FDAF7880F35
S11325009695879597F9089597F99F6780E870E005
S113251060E008959FEF80EC0895DF93CF931F93BD
S11325200F93FF92EF92DF927B018C01689406C0B7
S1132530DA2EEF010E941713FE01E894A59125916C
S1132540359145915591A6F3EF010E941B11FE01AF
S11325509701A801DA9469F7DF90EF90FF900F914B
S11325601F91CF91DF91089500240A94161617063F
S113257018060906089500240A9412161306140670
S113258005060895092E0394000C11F4882352F0D3
S1132590BB0F40F4BF2B11F460FF04C06F5F7F4F8B
S11325A08F4F9F4F089557FD9058440F551F59F072
S11325B05F3F71F04795880F97FB991F61F09F3F2C
S11325C079F087950895121613061406551FF2CF55
S11325D04695F1DF08C0161617061806991FF1CFA5
S11325E086957105610508940895E894BB276627CC
S11325F07727CB0197F908959B01AC0160E070E067
S113260080E89FE30C949F110E9417130C94C2124C
S11326100E94B41238F00E94BB1220F0952311F0EE
S11326200C9484120C948A1211240C94F6120E94B5
S1132630D31270F3959FC1F3950F50E0551F629F1D
S1132640F001729FBB27F00DB11D639FAA27F00D07
S1132650B11DAA1F649F6627B00DA11D661F829F2E
S11326602227B00DA11D621F739FB00DA11D621F13
S1132670839FA00D611D221F749F3327A00D611D30
S1132680231F849F600D211D822F762F6A2F112412
S11326909F5750409AF0F1F088234AF0EE0FFF1F45
S11326A0BB1F661F771F881F91505040A9F79E3F9C
S11326B0510580F00C9484120C94F6125F3FE4F3FD
S11326C0983ED4F3869577956795B795F795E795F2
S11326D09F5FC1F7FE2B880F911D9695879597F9FB
S11326E0089519F416F40C948A120C94BB130E94E6
S11326F0DB12B8F39923C9F3B6F39F57550B87FF41
S11327000E94C9130024A0E640EA9001805856951F
S1132710979528F4805C660F771F881F20F0261792
S11327203707480730F4621B730B840B20293129C7
S11327304A2BA69517940794202531254A2758F744
S1132740660F771F881F20F026173707480730F4D5
S1132750620B730B840B200D311D411DA09581F775
S1132760B901842F9158880F9695879508959B01F8
S1132770AC010C9404139F3F31F0915020F48795E1
S113278077956795B795880F911D9695879597F9D5
S1132790089591505040660F771F881FD2F708950F
S11327A097FB072E16F4009407D077FD09D00E94FA
S11327B0151407FC05D03EF4909581959F4F08951C
S11327C0709561957F4F0895A1E21A2EAA1BBB1B39
S11327D0FD010DC0AA1FBB1FEE1FFF1FA217B307E9
S11327E0E407F50720F0A21BB30BE40BF50B661FFF
S11327F0771F881F991F1A9469F7609570958095C3
S113280090959B01AC01BD01CF010895A29FB00139
S1132810B39FC001A39F700D811D1124911DB29F10
S1132820700D811D1124911D0895AA1BBB1B51E13C
S113283007C0AA1FBB1FA617B70710F0A61BB70B2C
S1132840881F991F5A95A9F780959095BC01CD01D1
S10928500895F894FFCF87
S11328560A726563656976653A2073656E643A2023
S113286673746172743A204572726F72203A20044E
S10928760A05040A050036
S9030110EB
